:02000004080AE8
:1000000000000A08D46F0A08000006000600050177
:0800100004029A080000000040
:0400180064610A080D
:1000200009480A4908B5884205D0094A824202D0E7
:10003000121A05F0D9FF0748074A0021121A05F0E5
:10004000E1FF064808BD00BF000000203C6F0A0821
:100050007000002070000020990600209906002002
:1000600070B503F019F90025054E064CA41BA40831
:10007000A54200D170BD56F8043B98470135F7E71B
:10008000086F0A08286F0A0800F06ABB08B500F07C
:10009000F7F9BDE8084003F0B7B802F0F7BD02F089
:1000A000F5BD02F0FBBD000000210C2008B5024A9E
:1000B00002F058FDFEE700BF9D280A080078B0FA5C
:1000C00080F04009704701230370704773B503F057
:1000D000EBF9364902F0FAFE03F0E6F9344D064634
:1000E000284600F03DFD334905F0FEFB04F04EFFCD
:1000F0000022314B04F0ECFD02240B460246009432
:10010000304602F0F2FF03F0CFF92C4902F0F5FE81
:1001100003F0CAF92A4902F0D9FE03F0C5F90646F0
:10012000284600F049FD274905F092FC264905F0D4
:10013000DBFB22460146304602F0C8FF03F0B4F96B
:10014000224902F0DAFE03F0AFF9214902F0BEFEC7
:1001500003F0AAF91F490646284600F001FE224690
:100160000146304602F0B2FF03F09EF91A4902F050
:10017000C4FE03F099F9194902F0A8FE03F094F9BE
:100180000646284600F080FE22460146304602F030
:100190009DFF03F089F9124902F0AFFE03F084F9E4
:1001A00002B0BDE8704002F09CBE00BF78610A0852
:1001B000700000206666E63F0000404087610A0844
:1001C0008A610A0880E6C54700003E4496610A0835
:1001D0009C610A0800507D44B0610A08B3610A08B6
:1001E000BF610A0830B58BB06946414801F048FA52
:1001F00003F05AF93F4902F080FE03F055F93E49F9
:1002000002F064FE03F050F9694602F076FE03F056
:100210004BF93A4902F05AFE03F046F9039C0546B1
:10022000002C60DA2D2102F055FE61420A22284698
:1002300002F06FFE284602F054FE03F035F9304913
:1002400002F044FE03F030F9049C0546002C4CDA21
:100250002D2102F03FFE61420A22284602F059FE9B
:10026000284602F03EFE03F01FF9264902F02EFE5A
:1002700003F01AF90222069902F028FF03F014F99C
:10028000214902F03AFE03F00FF9204902F01EFE68
:1002900003F00AF90222079902F018FF03F004F9AB
:1002A000194902F02AFE03F0FFF8194902F00EFE88
:1002B00003F0FAF80222089902F008FF03F0F4F8BC
:1002C000114902F01AFE03F0EFF80A4902F015FE98
:1002D00003F0EAF80F4902F010FE4FF4FA7002F052
:1002E00053FF0BB030BD2146A0E72146B4E700BF65
:1002F000B4000020C2610A08E7610A08F6610A0832
:1003000005620A0814620A0823620A0828620A08B9
:1003100037620A08A1620A081FB50E4800F04CFBBC
:1003200003F08EFB0C4A0D490346CDE901214FF045
:10033000FF32402100920A48802202F001FA03F0C5
:100340007FFB282203463721064805B05DF804EB01
:1003500001F0BEB970000020801A0600A0860100DE
:10036000D0000020B400002073B5354C354E204637
:1003700001F0A6FC204602F000F900233249204695
:10038000236102F0A3FD304600F0EAFB2F4905F09F
:10039000ABFA04F0FBFD00222D4B04F099FC022582
:1003A0000B4602460095204602F09FFE2046294952
:1003B00002F0A3FD2849204602F088FD304600F0F7
:1003C000FBFB264905F044FB254905F08DFA2A463A
:1003D0000146204602F07AFE2046224902F08DFDB9
:1003E0002046214902F072FD3046204900F0B8FC59
:1003F0002A460146204602F069FE20461C4902F0CA
:100400007CFD1C49204602F061FD304600F03CFDB9
:100410002A460146204602F059FE1749204602F0BE
:100420006CFD03F041F802F05CFD2046134902F038
:100430004DFD204602B0BDE8704002F09EB800BFFE
:10044000D00000207000002046620A086666E63F81
:10045000000040404F620A0854620A0880E6C5471F
:1004600000003E4496610A08A4610A0800507D44D9
:10047000B0610A08B3610A08BF610A085E620A082F
:1004800030B597B00DA9A44801F0C6FAFFF71EFEDB
:10049000FFF76AFFA14B186802F076FE042003F014
:1004A00093FA18B99E499F4802F010FD032003F00B
:1004B0008BFA18B99C499B4802F008FD022003F012
:1004C00083FA18B99949974802F000FD0A2002F012
:1004D0005BFE02F0F3F9934802F04FF802F0E4FFFC
:1004E000934902F0FAFC02F0DFFF129904469148AA
:1004F00005F0F0F802220146204602F0E7FD02F086
:10050000D3FF8D4902F0E9FC02F0CEFF02221399DD
:1005100002F0DCFD02F0C8FF874902F0DEFC02F0C9
:10052000C3FF0222149902F0D1FD02F0BDFF8349FE
:1005300002F0EDFC784904A801F0AAF902F0B4FF3A
:100540007F4902F0CAFC02F0AFFF0446DDE9040176
:1005500005F06CF802220146204602F0B7FD02F0D9
:10056000A3FF754902F0B9FC02F09EFF0446DDE9E5
:10057000060105F05BF802220146204602F0A6FDC6
:1005800002F092FF6C4902F0A8FC02F08DFF0446D5
:10059000DDE9080105F04AF802220146204602F092
:1005A00095FD02F081FF644902F097FC02F07CFFA8
:1005B0000446DDE90A0105F039F802220146204629
:1005C00002F084FD02F070FF5C4902F0A0FC002301
:1005D0008DF80F300DF10F030DF10D0203A94E48F8
:1005E00000930DF10E0301F02CF902F05DFF554967
:1005F00002F073FC02F058FF0A229DF80C1002F082
:1006000088FC02F051FF4C4902F067FC02F04CFFFD
:100610000A229DF80D1002F07CFC02F045FF4649CD
:1006200002F05BFC02F040FF0A229DF80E1002F07F
:1006300070FC02F039FF404902F04FFC02F034FF39
:100640000A229DF80F1002F064FC02F02DFF3B49D6
:1006500002F05DFC02F028FF3B4902F04EFC0DA9C0
:100660002D4801F0D9F902F01FFF384902F02EFCA5
:1006700002F01AFF0422129902F028FD02F014FF82
:10068000334902F023FC02F00FFF0422139902F019
:100690001DFD02F009FF2F4902F018FC02F004FFD3
:1006A0000422149902F012FD02F0FEFE234902F02A
:1006B00024FC02F0F9FE244902F01FFC129804F019
:1006C00065FC13A3D3E9002304F002FB04F0AEFFA2
:1006D0001849044605F0C4FA1F4D88B92C6002F091
:1006E000E3FE1E4902F0F2FB02F0DEFE042229685E
:1006F00002F0ECFC4FF47A7002F046FD17B030BD0A
:1007000020460C4904F0E6FF2860E8E7AFF30080DC
:10071000CDCCCCCCCCCC4940B4000020CC000020C7
:100720006F620A08D0000020CA640A0871620A08D1
:1007300073620A080000B44381620A08A1620A08D1
:1007400084620A0891620A089F620A08A2620A0883
:10075000A6620A08AB620A08C8000020B0620A0854
:1007600010B502F0A1FE4FF4E13102F07DFE02F07F
:100770009BFE02F080FE0028F9D0574C02F094FE58
:10078000564902F0C4FB02F08FFE554902F0B5FB5A
:1007900001223C21204601F0E7FF02F085FE51498D
:1007A00002F0ABFB204601F0E8FE4FF47A7002F055
:1007B000EBFC204601F084FA204601F0DEFE012128
:1007C000204601F081FC02F06FFE474902F095FBE4
:1007D0000221042003F0CEF80221032003F0CAF81E
:1007E0000221084603F0C6F80121204601F0BFFEB1
:1007F00000224FF001133D49C4E90423204602F0D2
:1008000065FB3B49204602F061FB3A49204602F075
:1008100074FB3949204602F070FB204601F0ADFE22
:10082000364800F036FD78BB02F03EFE344902F057
:1008300064FB02F039FE334902F048FB02F034FE5B
:1008400004462E4800F0BCF810220146204602F073
:1008500060FB204602F045FB02F026FE2A4902F02A
:1008600035FB02F021FE294902F030FB02F01CFEAC
:10087000274902F02BFB02F017FE264902F026FB67
:100880000A2002F081FCFBE702F00EFE4FF4165145
:1008900002F0EAFD02F008FE1F4902F02EFB02F012
:1008A00003FE1E4902F029FB0C211D4800F078FFD1
:1008B00028B902F0F9FD1B4902F008FBFEE74FF4EE
:1008C0007A7002F061FC0121154800F035FFBDE8A7
:1008D0001040FFF787BC00BFD0000020C3620A08A9
:1008E000CF620A08EC620A08F7620A0803630A0882
:1008F00022630A082D630A083B630A08700000207F
:100900004A630A0892630A08A3630A08EA630A08AA
:1009100014640A083E640A0868640A08A1620A08A6
:10092000B40000207E640A08704710B50446102108
:1009300003F0AAF8204610BD024B986808B101F0F8
:10094000CDBF70472C0100200EB403B503AB53F8A4
:10095000042B0021019302F0CDFB02B05DF804EB03
:1009600003B0704773B5044622790846A36832B1D4
:10097000A3B90B4902B0BDE8704002F0A7BA094A1A
:10098000267B094D0949647B012E18BF2946CDE914
:1009900000140749FFF7D8FF02B070BD054AEFE722
:1009A000CC640A08A1620A08C8640A08C4640A0878
:1009B000E2640A08BB640A084FF0FF330361704722
:1009C0008068704738B50B4D2978BFF35B8F11F005
:1009D00001040DD12846FFF771FB48B121460648B6
:1009E00002F07FF92846FFF76EFB044805F0F6FA9F
:1009F000014838BD280100202C01002039090A08CF
:100A00002DE9F04190F91330054601330F4606D128
:100A1000FFF7D8FF3946BDE8F04102F005BA0024DF
:100A200007264FF0010895F91300002180B202F06B
:100A3000B2FF95F9110008FA06F1394080B202F0D0
:100A4000AAFF95F91300012180B202F0A4FF95F9E5
:100A50001200640080B2E4B202F0B6FF08B144F0C4
:100A60000104013EDFD22046BDE8F08108B5FFF762
:100A7000A9FFBDE8084002F051B910B50446FFF7E0
:100A8000A1FF2146BDE8104002F062B930B590F9EF
:100A90001030044601330D4685B023D1017900683A
:100AA00002F04AFE2068294603689B689847206840
:100AB00002F04AFE03222179206802F03AFE206803
:100AC00003685B6998470502206803685B6998477B
:100AD000054320682D0203685B6998470543284653
:100AE00005B030BD90F9133001330CD11A4B684674
:100AF000009300238DF80430184B02930123ADF8C6
:100B00000C30FFF7BAFF94F91000002180B202F018
:100B100042FF45F080012046FFF772FF002120468A
:100B2000FFF76EFF002105022046FFF769FF002155
:100B300005432046FFF764FF2D02054394F910009A
:100B4000012180B202F027FF94F913300133C6D19E
:100B5000FFF78CFFC3E700BF08650A0820A1070064
:100B600010B5FA210446FFF791FFB0F5000F1CD035
:100B7000A18AB4F91630C1EB202252434900C1EBDF
:100B8000E0115943B4F91830121353439B1303EB8C
:100B9000E123E36003EB830303F18000001204F020
:100BA0004FFE034904F054FF10BD0248FCE700BFAC
:100BB0000000C8420000C07F2DE9F8430446FFF75B
:100BC000CFFFF7212046FFF761FFB0F5000F054684
:100BD00000F0BD80E068B4F91C60B0F5FA334FEA6C
:100BE000E07141F1FF32A3FB038903FB02F109EB42
:100BF000410906FB02F1F71703FB0711A6FB036788
:100C00000F44390341EA16513003B4F91E6006FB64
:100C100009FCF71708FB07CCA6FB086767444FEAF7
:100C2000162C4CEA076C668B4FEA272E1CEB000053
:100C30004EEB010E0030A0FB06014EF5004E06FB08
:100C40000E114E10CF1756EA070100F08280B4F95A
:100C500024002D1100FB09FCC11708FB01CCA0FBEF
:100C60000801B4F92280614408FB02F24FEAE879F6
:100C700003FB0922A8FB0389002391444FEA494C56
:100C80004FEA48421218C5F580154CEAD83CB4F931
:100C900020804CEB010CE9179B184FEAC17E4FEA0C
:100CA000C5704FEAC80141EB0C0CC01A40F6354341
:100CB000A0FB03014EEA550E6EEB0C0E324603FB11
:100CC0000E113B4604F0D6FFB4F92A204D1302FB67
:100CD00005F7460B46EAC146D31706FB0377A2FB8E
:100CE000062355433B4406FB0355A2FB06232B4436
:100CF000550E45EAC315B4F928202D184FEA63664E
:100D000041EB06065143D31700FB0311A2FB00235E
:100D10000B44D10CB4F9264041EA43316D184FEA37
:100D2000E34046EB00032A0AE51742EA0362191280
:100D300020012B0143EA1473801843EB010104F0F6
:100D400095FD4FF06E5104F0CFFDBDE8F8830248E9
:100D5000FBE70020F9E700BF0000C07F00000000B3
:100D600010B50C46FFF728FF114904F071FE21462B
:100D700004F06EFE04F00AF909A3D3E9002302F09F
:100D800087FE02460B4600200A4903F09FFF06A398
:100D9000D3E9002304F052F904F048FC10BD00BF71
:100DA000EBE2361AC05BC83F0000000040A5E540FA
:100DB0000000C8420000F03F30B590F91030044602
:100DC00001330D4685B01FD10179006802F0B4FCF3
:100DD0002068294603689B689847206802F0B4FCA5
:100DE00002222179206802F0A4FC206803685B6974
:100DF00098470546206803685B69984740EA0520E4
:100E000085B2284605B030BD90F9133001330CD1BE
:100E1000184B6846009300238DF80430164B02935C
:100E20000123ADF80C30FFF728FE94F910000021E3
:100E300080B202F0B0FD45F080012046FFF7E0FDF2
:100E400000212046FFF7DCFD002105462046FFF784
:100E5000D7FD40EA052085B294F91000012180B247
:100E600002F099FD94F913300133CAD1FFF7FEFD6A
:100E7000C7E700BF08650A0820A1070008B5FFF70B
:100E80009BFF40BA80B208BD10B50446FFF768FE6C
:100E9000FD212046FFF790FFB0F5004F3AD0B4F99E
:100EA0003230E2681B05C3EB8030B4F93430A2F570
:100EB000963202FB130303F58043D81394F83030C5
:100EC0005343DB1203F5004194F9363053439B1230
:100ED0004B439B1203F50012B4F92E30534303F534
:100EE00000539B134343D813404394F82C20C01164
:100EF0005043A3EB201020EAE070B0F1C85FA8BF18
:100F00004FF0C850001304F09BFC4FF06A5104F0FE
:100F1000EBFC10BD0048FCE70000C07F30B590F945
:100F20001030044601330D4685B018D101790068B0
:100F300002F002FC2068294603689B6898472068F5
:100F400002F002FC01222179206802F0F2FB206805
:100F500003685B699847C5B2284605B030BD90F973
:100F6000133001330CD1154B6846009300238DF8E4
:100F70000430134B02930123ADF80C30FFF77DFDD5
:100F800094F91000002180B202F005FD45F08001C7
:100F90002046FFF735FD00212046FFF731FD0546CD
:100FA00094F91000012180B202F0F5FC94F913309D
:100FB0000133D1D1FFF75AFDCEE700BF08650A081B
:100FC00020A10700F32108B5FFF7A8FF00F00100FA
:100FD00008BD38B588210446FFF750FF8A21A0825A
:100FE0002046FFF74BFF8C21E0822046FFF746FFAB
:100FF0008E2120832046FFF741FF90216083204609
:10100000FFF73CFF9221A0832046FFF737FF942192
:10101000E0832046FFF732FF962120842046FFF729
:101020002DFF982160842046FFF728FF9A21A08495
:101030002046FFF723FF9C21E0842046FFF71EFF98
:101040009E2120852046FFF719FFA12160852046BB
:10105000FFF764FFE12184F82C002046FFF70EFF24
:10106000E321E0852046FFF759FFE42184F83000B2
:101070002046FFF753FFE52105462046FFF74EFFC8
:1010800000F00F0343EA0510E62160862046FFF7D3
:1010900045FFE52105462046FFF740FF031143EADF
:1010A0000510A086E7212046FFF738FF84F83600B8
:1010B00038BD00007FB590F91030044601330E466C
:1010C000154612D10179006802F036FB20683146DE
:1010D00003689B6898472068294603689B6898477F
:1010E000206802F031FB04B070BD90F91330013379
:1010F0000CD1144B6846009300238DF80430124B3A
:1011000002930123ADF80C30FFF7B7FC94F91000FF
:10111000002180B202F03FFC06F07F012046FFF77D
:101120006FFC29462046FFF76BFC94F91000012163
:1011300080B202F030FC94F913300133D3D1FFF7C1
:1011400095FCD0E708650A0820A10700F8B5044619
:10115000DB0002F0070203F03803134343EA811374
:101160009DF8186080F83C3090F840309DF81C5095
:101170009DF8207066F3471380F84030ED0090F83A
:10118000383007F0070705F0380523F03F033D43EB
:101190001D4380F8385006F00702F221FFF78AFF5E
:1011A00094F838202046C2F3C20302F007019B00E6
:1011B00043EA411343EAD212F521FFF77BFF94F88B
:1011C0003C202046C2F3C20302F007019B0043EA21
:1011D000411343EA9212F421BDE8F840FFF76ABFD9
:1011E00030B5044690F9100085B0421C19D1206832
:1011F00002F070FAD0212046FFF790FE6028A06030
:1012000045D12046B622E021FFF754FF4FF49670F7
:1012100001F0BAFF2046FFF7D5FE054628B364204B
:10122000F6E7012180B202F0B6FB94F9100001212B
:1012300080B202F09FFB94F91300431C04D1FFF726
:10124000C1FB01F05DFDD5E7012180B202F092FB08
:1012500094F91100012180B202F08CFB94F9120084
:10126000002180B202F086FBC4E72046FFF7B1FE02
:10127000052303211A4620460093CDE90155FFF7C7
:1012800065FF642001F080FF012005B030BD002023
:10129000FBE7772310B50371044602F0D1FB206011
:1012A0002046FFF79DFF30B9762320462371BDE825
:1012B0001040FFF795BF10BD10B50446406810B14F
:1012C00003689B689847204610BD38B5044690F9DE
:1012D0000E00012180B202F04DFB94F90E000121B5
:1012E00080B202F058FB256835B1284601F008FDB0
:1012F000012084F8340038BD94F90F00012180B238
:1013000002F038FB637B94F90F00012B94BF294650
:10131000012180B202F03FFB94F91000421C09D079
:10132000012180B202F026FB94F91000012180B265
:1013300002F031FB94F91100431CD9D0002180B296
:1013400002F018FBD4E700002DE9F04F04460068D6
:101350000D46134685B038B1002200920A4601F0CE
:1013600069FD05B0BDE8F08F227BA068002A0CBFA4
:101370004FF0010B4FF0800B0A78444F1BEA020F2D
:10138000B7FBF0F70CBF4FF001094FF00009CB1885
:10139000FFB20393039BAB42E3D05E464FF00008DD
:1013A00095F800A017B1384601F078FA637B13F086
:1013B000FD0F41D194F910305A1C0FD01AEA0601E2
:1013C00014BF012300234B4508D06369606A1A6883
:1013D00000292CD04FF0010902431A60A169E36A89
:1013E0000A6813430B6017B1384601F057FA94F9B5
:1013F0001130013306D0E3691A68A36A1A4218BF94
:1014000046EA0808A169E36A0A6822EA03030B6056
:1014100094F91130013318BF85F80080237B002B2D
:1014200032D17600F6B2002EBCD10135B2E722EA05
:10143000000289461A60D1E7A169E36A0A6813438A
:101440000B6017B1384601F029FA94F910300133D6
:1014500008D06369616A1A681AEA060F14BF0A4362
:101460008A431A60A169E36A0A6822EA03030B60EF
:1014700094F911300133CBD0E3691A68A36A1A4298
:1014800018BF46EA0808C3E77608CCE720A10700A2
:1014900007B501228DF807100DF10701FFF754FF82
:1014A0009DF8070003B05DF804FB2DE9F041044608
:1014B00000680E4617461D4610B1616801F048FCF1
:1014C00094F90E00002180B202F065FA069B05EB4C
:1014D0000308454508D13744B7420BD0204616F8DB
:1014E000011BFFF7D5FFF7E7204615F8011BFFF7B3
:1014F000CFFFEEE794F90E00012180B202F04BFA23
:10150000206808B101F00AFC0120BDE8F0814260CA
:101510000022027220220170C260704710B5037A67
:10152000044653B12178606802F006F9606802F061
:101530000BF9B0FA80F0400910BD012100F003F86A
:101540000028EFD1F8E738B5044640680D4602F0B0
:10155000C1F80120207225B12046BDE83840FFF7D0
:10156000DDBF38BD2DE9F8431F46DDE90896C368A5
:10157000154632449A420446884602D90020BDE806
:10158000F8830178406802F0D7F87EB960682A468F
:1015900003684146DB6898478542EFD13946606869
:1015A00002F0CEF8B0FA80F04009E8E7B9F1000F98
:1015B000ECD06068324603684946DB689847B04221
:1015C000DCD1E3E72DE9F041154604460E46D2B2E0
:1015D0000178406802F09BF885420DD100271FFA80
:1015E00087F8A84507F1010709D2606803685B69BD
:1015F000984706F80800F2E70020BDE8F0810120D6
:10160000FBE72DE9F843074688461646994600252C
:10161000B54212D2FA68741B944228BF1446331B99
:10162000AB4294BF4B4600232246384608EB0501E7
:10163000FFF7C8FF10B12544EAE70120BDE8F883B1
:1016400073B51D460023CDE900339DF81C300446D8
:10165000069EFFF787FF40B1012332462946204608
:1016600002B0BDE87040FFF7CCBF02B070BD08B556
:10167000406802F02BF8012008BD70477047000059
:101680000B4610B5282204460021184604F0BAFC87
:101690000B22094904F0EAFC00220121C272C16058
:1016A000E16842620022016103218261C261034A52
:1016B0004161026210BD00BF14650A080AD7233CCD
:1016C00010B50446142102F0DFF9204610BD0000D9
:1016D000F8B51F46094B044603600023C0E90231F8
:1016E00010201646FEF7D9FC054618B13A46314699
:1016F000FFF70DFF2046A560F8BD00BF24650A086E
:101700001FB50023CDE900338DF80C108DF80D20A6
:101710000123022203A98068FFF724FF05B05DF8CA
:1017200004FB08B50A4601743D21FFF7E9FFBDE857
:1017300008401E2001F028BD70B504460D4600216A
:10174000067CFFF7EEFF192001F01EFD00220721A5
:101750002046FFF7D5FF85B180223F212046FFF7C5
:10176000CFFF0A2001F010FD20463146FFF7D9FFD8
:10177000BDE87040142001F007BD2A46EDE71FB513
:1017800001220023CDE9002303AB8DF80C10806803
:101790001946FFF755FF9DF80C0005B05DF804FBF6
:1017A00070B504460E4680680121FFF7CCFE054661
:1017B00010B90025284670BD00212046FFF7DFFF45
:1017C000A02813D100212046FFF7ABFF20223F21A4
:1017D0002046FFF795FF1E2001F0D6FC0021204691
:1017E000FFF7CDFFA0280CD00A20F5E74FF47A7060
:1017F00001F0CAFC00212046FFF7C1FFA028D8D184
:10180000E0E7322001F0C0FC00223E212046FFF735
:1018100077FF0A2001F0B8FC002207212046FFF7DD
:101820006FFF00223F212046FFF76AFF0A2001F0E8
:10183000ABFC20463146FFF774FF142001F0A4FCF6
:10184000B8E7F8B50E46352115461C46069FFFF74A
:1018500096FF0EB18309337015B1C0F301132B70DD
:1018600014B1C0F38103237017B100F00300387086
:10187000F8BD1FB58DF80C100021CDE900311346DD
:1018800003A901228068FFF7DBFE05B05DF804FBC9
:1018900000232DE9F34782466A46CDE90033084626
:1018A00008232021FFF7E5FF9DF801309DF8000097
:1018B00040EA032000B203F057FB00221D4B03F067
:1018C000BDFB9DF8033080469DF80200894640EA42
:1018D000032000B203F048FB0022164B03F0AEFBDE
:1018E0009DF8053006469DF804000F4640EA0320A7
:1018F00000B203F039FB00220E4B03F09FFB9DF872
:10190000073004469DF806000D4640EA032000B269
:1019100003F02AFB0022074B03F090FBCAE9060103
:101920005046CAE90089CAE90267CAE9044502B01B
:10193000BDE8F0870000103FF7B50D4616460021C0
:101940001822044604F05EFB002328460093ADF8FD
:1019500004306A4606233146FFF78BFF9DF80130BD
:101960009DF800009DF8027040EA03209DF80330C6
:101970009DF8045047EA03279DF805301A2E45EAE2
:10198000032500B23FB22DB20DD008D80E2E0AD0DA
:10199000142E08D0082E21D0204603B0F0BD282EEA
:1019A0001CD02E2EF7E703F0DFFA0022184B03F0CD
:1019B00045FBC4E90001384603F0D6FA0022144B77
:1019C00003F03CFBC4E90201284603F0CDFA0022F3
:1019D0000F4B03F033FBC4E90401DDE703F0C4FA65
:1019E00000220C4B03F054FCC4E90001384603F01C
:1019F000BBFA0022074B03F04BFCC4E90201284666
:101A000003F0B2FA0022034B03F042FCE3E700BF0D
:101A10000000B03F0000594030B50C4687B0054685
:101A200020220021201D04F0EDFA24232360EB681E
:101A300063600323A36000F039FF1A222946206166
:101A40006846FFF779FFDDE9000103F0EFFD606113
:101A5000DDE9020103F0EAFDA061DDE9040103F024
:101A6000E5FDE061012007B030BD0029F0B568DB7D
:101A7000B0F90C408C4264DD002A62DBB0F90E4004
:101A800094425EDD847E022C5CD0032C63D0012C5A
:101A900004D1D243048914440A4621B2B0F9384033
:101AA0008C42A8BF0C460487B0F93A409442A8BFC4
:101AB00014464487B0F93C408C42B8BF0C4684873A
:101AC000B0F93E409442B8BF1446C48790F84C40E9
:101AD000012C18D1012B44D0022B55D09BB91446B0
:101AE000002AB0F90850B8BFD41D44F3CF0405FB59
:101AF00004140125476B02F0070605FA06F63D5D62
:101B000025EA06053D5590F84C40042C19D1B0F952
:101B10000840624301EBD17444F34F0402EBD272EC
:101B200004EB6202446BC907A05C4BBF03F00F03D8
:101B300000F00F0020F00F0040EA031348BF0343FA
:101B4000A354F0BDC943D24304892144448909B256
:101B5000224412B2A2E7C94344890C44114622B27E
:101B60009CE71446002AB0F90850B8BFD41D44F3CE
:101B7000CF0405FB04140125466B02F00707BD40A6
:101B8000375D3D433555BEE71446002AB0F908508D
:101B9000B8BFD41D44F3CF0405FB04140125466BE4
:101BA00002F00707BD40375D7D40EBE738B50D46D5
:101BB000114604461AB209B200F094FA0B4B069A89
:101BC00023600023E262079AC4E90933C4E90C23C5
:101BD0004FF0FF33C4E910339DF914302046A3645D
:101BE000049B84F84C50236538BD00BF40650A084B
:101BF00038B50C4B04460360406B18B101F04EF849
:101C000000236363656A35B12846FFF755FB382129
:101C1000284601F039FFA06A10B1102101F034FF0D
:101C2000204638BD40650A0830B5856A87B004464D
:101C30008DF80F107DB10023CAB2CDE900338DF8C5
:101C400014308DF8152001230222284605A9FFF73C
:101C500089FC07B030BD2946B0F8400001F09BFE7A
:101C60002B460122606A00950DF10F01FFF71DFC64
:101C7000EFE7002914BFA721A621FFF7D5BFF0B5D4
:101C8000856A04460E46174685B065B100238DF877
:101C90000F3001230DF10F00009001932846FFF74C
:101CA00061FC05B0F0BD2946B0F8400001F073FEBC
:101CB0002B463A463146606A0095FFF7F6FBF0E79F
:101CC00010B590F84C30B0F90820B0F90A105A431A
:101CD000CB1D48BF01F10E03DB1004465A4300211F
:101CE000406B04F08FF90023A3632389013BA38792
:101CF0006389013BE38710BD70B5436B04460E4614
:101D000015460BB3002D33D1236D002B50D010207E
:101D1000FEF7C3F9054618B13146226DFFF7F7FB10
:101D2000A5621DB301212846FFF70DFCF0B1204646
:101D3000FFF7C6FF0023A36323890120013BA3878C
:101D40006389013BE38712E090F84C30B0F908005A
:101D5000B4F90A205843D31D48BF02F10E03DB102B
:101D6000584300F093FF60630028CBD1002070BD82
:101D7000A06C0028C8DB012180B201F0FBFD01212D
:101D8000B4F8480001F007FE0A2001F0FDF9002137
:101D9000B4F8480001F0FFFD0A2001F0F5F9B4F8AD
:101DA0004800012101F0F7FD0A2001F0EDF9ABE751
:101DB000606A0028DAD0FFF788FA0028D6D001211F
:101DC000B4F8400001F0D6FDB1E7812307B5022247
:101DD0008DF8051001A98DF80430FFF750FF03B00E
:101DE0005DF804FB2DE9F04F1F4685B0BDF9388042
:101DF000A7EB010AA8EB0209B9F1000FB8BFC9F1BE
:101E00000009BAF1000FB8BFCAF1000AD1458346F4
:101E10000C461646BDF83C3004DD3A46344647468B
:101E20000E469046BC4205DD324646469046224666
:101E30003C4617463A1B91B20091A8EB06010029D7
:101E4000B8BF4942C2F3C035019111B24645B4BF93
:101E500001224FF0FF320D446D100292BC421CDC97
:101E6000DBF80020D145D2F81880C7BF31462246A2
:101E70003246214603935846C047019A039BAD1A48
:101E8000A9B22DB2002D05DA029A1644009A36B294
:101E900055182DB2013424B2E0E705B0BDE8F08F4B
:101EA000704710B404682469A44610BC604730B47D
:101EB000BDF8085004680295A46BA44630BC604786
:101EC00030B4BDF8085004680295E46BA44630BCF9
:101ED000604770B4BDF90C50BDF810600468CDE9DE
:101EE0000356246CA44670BC60472DE9F3411C46A0
:101EF000164605460F460368013CBDF820805B6925
:101F00003444984724B22B68CDF8048000942846C6
:101F10009C6A32463B463946A04728462B68DB6A16
:101F200002B0BDE8F04118472DE9F34117460446D9
:101F30001D460E460368BDF820805B699847CDE9D1
:101F4000007822686B1E33442046956A31463A4633
:101F50001BB2A84720462368DB6A02B0BDE8F04107
:101F600018472DE9F3471E4603680C465B69054692
:101F70001746BDF92880BDF82C9098472644B442F6
:101F80002B680BDACDF800902146D3F820A03A4612
:101F9000434628460134D04724B2F0E72846DB6A9E
:101FA00002B0BDE8F047184713B50191B0F90E1023
:101FB00002680091146C0022B0F90C301146A04761
:101FC00002B010BD2DE9F34704460F4616461D46E4
:101FD0000368BDF82C805B69BDF928909847236899
:101FE000CDF80080324639462046D3F824A02B464F
:101FF000D047236809F1FF32CDF8008032443946DA
:102000002046D3F824A012B22B46D0472368CDF83F
:102010000080324639462046D3F820A04B46D047B0
:10202000013D2368E919CDF8008020461D6A32463B
:102030004B4609B2A84720462368DB6A02B0BDE8D8
:10204000F047184770472DE9F743994216468046F6
:102050000D461C46BDF92870BDF82C90026812D1BF
:10206000BE42C2BF33463E461F46CDF828907B1C79
:10207000946B9B1B324629464046A4461BB203B0D4
:10208000BDE8F0436047BE420AD19942C2BF0B4649
:1020900025461C46CDF82890631C5B1BD46BE9E7F2
:1020A00053699847CDE90079D8F8003040469F6AD7
:1020B000324623462946B8474046D8F80030DB6A06
:1020C00003B0BDE8F043184701F00303B0F90A205C
:1020D0008376B0F90830C90759BF8381C2818281F4
:1020E000C381704730B50181002481814FF0FF31F9
:1020F000054D4281C281054A4460C0E90512056070
:1021000004610477046230BD9C6A0A080101000181
:102110002DE9F04F0026354689B00493BDF94C30C7
:10212000BDF9488005930368CDE902125B69044656
:10213000BDF850A0984718F1070348BF08F10E03F7
:102140004FEAE30B0196039B019A05999A18BDF992
:10215000043012B2994227DD4FF00009049B33444A
:1021600006930FFA89F398451FFA89F117DD48079E
:1021700005BF0698DB106D00C55C18BFEDB22B06DD
:102180000AD5029B07921944236820469B6909B22D
:102190001F465346B847079A09F10109E1E7019B39
:1021A0005E4401330193CEE720462368DB6A09B021
:1021B000BDE8F04F184700002DE9F04F91B01746E9
:1021C0001E46026ABDF868308246BDF86C809DF8F4
:1021D00070509DF8744005910293002A40F0B98038
:1021E000B0F90C308B4240F33C81B0F90E30BB4269
:1021F00040F33781062303FB0513002B40F33181A5
:1022000007EBC403002B40F32C81037F1BB9AF2ED7
:1022100084BF0136F6B2DAF8003050465B69984761
:1022200005230993002304938F4B06EB8606334462
:102230000C93BBB206930C9B049ABDF810609B5C98
:102240004FF000090793ABB20B93BDF81430039322
:1022500005FB06331BB2089308230A93039B1E4415
:1022600036B2079ADAF80030D2074DD5012D06991B
:102270001FFA89F23BD1012C39D1D3F818B0029B57
:102280000A443146504612B2D847079B09F101096A
:102290005B0807930A9B4FFA89F9013B13F0FF0390
:1022A0000A93DED1049B01335BB20493099B013B8B
:1022B00013F0FF030993BED1029B43450FD0012DBC
:1022C000DAF8003034D1012C32D10399CDF80080F6
:1022D00005311C6A3A460823504609B2A0475046C9
:1022E000DAF80030DB6A11B0BDE8F04F184704FBA4
:1022F0000212029901910094D3F81CB050462B466B
:10230000089912B2D847C0E7029A4245BDD0012DC4
:1023100006991FFA89F206D1012C04D1D3F818B01E
:102320000A444346ADE704FB0212CDF80480E2E71D
:102330000B9AE40002EB8201039ACDF804800A4470
:1023400011460094DC693A462B46504609B2A04734
:10235000C5E7137A5168F61A1268F6B20E9231F890
:10236000362001EBC60304929A78012D0892DA78A0
:1023700093F906B00C9293F90520099201D8012C2B
:1023800053D9BDF9243007930FFA8BF306934FF01E
:102390000008C146DAF8003050465B699847BBB286
:1023A0000A935B44CDF80C800F930C9B039A9A42DE
:1023B00095D2069B002713440A9A039903FB042332
:1023C0001BB20B9343460F9A02EB010B0FFA8BFBE8
:1023D000089A97423CD25A1CD2B25B070D9207D1A1
:1023E000049B04990E9A01339BB212F80190049356
:1023F00019F0800F11D0012DDAF80030BDF814105B
:1024000017D1012C15D1099A9B69114439441E46F4
:102410005A465046029B09B2B0474FEA4909013774
:102420000D9B5FFA89F9FFB2D2E70023CDE90633AD
:10243000ADE7079A50463A4402FB0511029A09B2E9
:10244000CDE90042DB690B9A1E462B46B047E4E714
:10245000039E089B01369844F3B25FFA88F8039311
:10246000A3E711B0BDE8F08F94650A08F0B5026AE1
:1024700004460B4685B0002A34D10A2908D1438A84
:102480000282427E03EBC2036382012005B0F0BDED
:102490000D29FAD0E17E007E657E71B10621B4F986
:1024A000106001FB0061B4F90C60B142C1BFB4F926
:1024B0001210228201EBC5026282E28ACDE9020596
:1024C0000192A28A20460092B4F91010B4F91220A9
:1024D000FFF772FE237E228A03EB430302EB4303E2
:1024E0002382D2E70A2907D100230382137B417E8E
:1024F000428A01FB0323C7E70D29C6D0157AA942FA
:10250000C3D3917A9942C0D351685D1BEDB201EB00
:10251000C505AF782FB3E97819B3E17E007E667EFA
:1025200091B195F905103944B4F9107000FB0171AF
:10253000B4F90C70B94207DD00272782B4F91210F4
:10254000127B02FB06126282E28ACDE90206019248
:10255000A28A20460092B4F91010B4F91220FFF7B5
:102560002BFE2979237E228A01FB0323B8E7012968
:1025700038BF01210176417670472DE9F04F0446BE
:102580008BB000F09BF9B4F90A30B4F93A50DA1D77
:1025900048BF03F10E024023B4F9087094F8389054
:1025A000FFB2002DB8BF0735B94528BFB9464FF077
:1025B000000B8DF82330C2F3C7030393A36AC5F35E
:1025C000C705DB6807FB059A013B9BB20493B4F98E
:1025D0003C307A1C23EAE373DBB213440693039B7B
:1025E0009D426BD2636B267A94F8542003EB0A0861
:1025F000069B4A449E1BA36A1111A6EB0906A5F18E
:102600005000F6B2C0B2103102F00F02002B35D0EC
:102610008DF825008DF826101846E16A8DF82720E0
:102620008DF824B0FFF723F801230422CDE900BB85
:10263000A06A09A9FEF796FF9DF810300593A06ADD
:10264000AEB1059B4146B34228BF33461A4601232B
:1026500001930DF12303009301230792FEF782FFFC
:10266000079AB61A9044F6B200F028F9E7E7216B12
:10267000FEF7FDFF0135EDB2BA44B0E78DF8240056
:102680008DF82510B4F8400019468DF826200593E2
:1026900001F081F9059B0322009309A9606AFEF706
:1026A00004FFB4F84000012101F075F9059B3246A2
:1026B0004146606A0093FEF7F8FEDBE74FF0042224
:1026C0004FF0FF33C4E90E230BB0BDE8F08F0000DC
:1026D00030B5044685B00A9D0395099D02959DF984
:1026E0002050CDE9003513460A460121FFF75EFA76
:1026F000034B20462360002384F8543005B030BDDE
:10270000F46A0A0810B50446024B0360FFF770FA3A
:10271000204610BDF46A0A0810B50446024B036057
:10272000FFF7F0FF204610BD306D0A0810B50446D3
:10273000FFF7F2FF2046582101F0A6F9204610BD10
:1027400030B5044685B00A9D0295099D01959DF915
:1027500020500095FFF7BCFF2046024B236005B0D8
:1027600030BD00BF306D0A0830B5044685B0FFF7B4
:10277000C3FA2F212046FFF728FBA2682F4B9A426D
:1027800021D12368012120461B6B98470125202376
:10279000CDE901357323B4F90820B4F90A10203AC1
:1027A000733902EBD27201EBD1712046009341F3F1
:1027B0004F01234B42F34F02FFF7AAFC236800218D
:1027C00020461B6B9847A368B3F1801F17D12023C5
:1027D0000120CDE901307323B4F90820B4F90A10BF
:1027E000203A733902EBD27201EBD171009320468B
:1027F000134B42F34F0241F34F01FFF789FC1622BE
:1028000020461049FFF73BFA054618B9002528462F
:1028100005B030BDA368B3F1801F07D0642000F07D
:10282000B3FCAF212046FFF7FFF9F0E70422204672
:102830000549FFF724FA0028F0D1E7E740008000BF
:10284000486B0A08886D0A08846D0A0808B5024BAF
:102850001B689B68019308BDB001060808B5024BD0
:102860001B68DB68019308BDB001060808B5024B80
:102870001B681B69019308BDB001060808B5024B2F
:102880001B685B69019308BDB001060808B5024BDF
:102890001B685B68019308BD9C01060808B5024BE4
:1028A0001B68DB68019308BD9C01060808B5024B54
:1028B0001B685B69019308BD9C01060808B5024BC3
:1028C0001B68DB68019308BDD001060808B5024B00
:1028D0001B685B6C019308BDD001060808B5024B6C
:1028E0001B689B6C019308BDD001060808B5024B1C
:1028F0001B68DB6C019308BDD001060808B5024BCC
:102900001B685B6D019308BDD001060808B5024B3A
:102910001B689B69019308BDC401060808B5024BFA
:102920001B685B6A019308BDC401060808B5024B29
:102930001B689B6A019308BDC401060808B5024BD9
:102940001B68DB6A019308BDC401060808B5024B89
:102950001B681B6B019308BDC401060808B5024B38
:102960001B685B6B019308BDC401060808B5024BE8
:102970001B689B6B019308BDC401060808B5024B98
:102980001B681B6C019308BDC401060808B5024B07
:102990001B681B6C019308BDAC01060808B5024B0F
:1029A0001B68DB6C019308BDAC01060808B5024B3F
:1029B0001B689B6D019308BDAC01060808B5024B6E
:1029C0001B68DB6D019308BDAC01060808B5024B1E
:1029D0001B681B6E019308BDAC01060808B5024BCD
:1029E0001B685B6E019308BDAC01060808B5024B7D
:1029F0001B689B6E019308BDAC01060808B5024B2D
:102A00001B68DB6E019308BDAC01060808B5024BDC
:102A10001B681B6F019308BDAC01060808B5024B8B
:102A20001B685B6F019308BDAC01060808B5034B3A
:102A30001B68D3F88030019308BD0000AC01060884
:102A400008B5034B1B68D3F89030019308BD000014
:102A5000AC01060808B5024B1B681B68019308BD52
:102A6000B401060808B5024B1B685B69019308BDF9
:102A7000B401060808B5024B1B68DB69019308BD69
:102A8000B401060808B5024B1B681B6A019308BD18
:102A9000B401060808B5024B1B685B6A019308BDC8
:102AA000B401060808B5024B1B689B6A019308BD78
:102AB000B401060808B5024B1B689B6B019308BD67
:102AC000B401060808B5024B1B68DB6B019308BD17
:102AD000B401060808B5024B1B681B68019308BDCA
:102AE000D801060808B5024B1B685B68019308BD56
:102AF000D801060808B5024B1B681B69019308BD85
:102B0000D801060808B5024B1B685B69019308BD34
:102B1000D801060808B5024B1B689B69019308BDE4
:102B2000D801060808B5024B1B68DB69019308BD94
:102B3000D801060808B5024B1B681B6A019308BD43
:102B4000D801060808B5024B1B685B6A019308BDF3
:102B5000D801060808B5024B1B689B6C019308BDA1
:102B6000C001060808B5024B1B685B6B019308BDEA
:102B7000A801020808B5024B1B685B68019308BDF9
:102B8000A401060808B5024B1B685B69019308BDE8
:102B9000A401060808B5034B1B68D3F890300193D5
:102BA00008BD0000A401060808B5034B1B68D3F854
:102BB0009C30019308BD0000A401060808B5024B33
:102BC0001B685B68019308BDC801060808B5024B85
:102BD0001B689B68019308BDC801060808B5024B35
:102BE0001B68DB68019308BDC801060808B5024BE5
:102BF0001B681B69019308BDC801060808B5024B94
:102C00001B685B69019308BDC801060808B5024B43
:102C10001B689B69019308BDC801060808B5024BF3
:102C20001B68DB69019308BDC801060808B5024BA3
:102C30001B681B6A019308BDC801060808B5024B52
:102C40001B681B6B019308BDC801060808B5024B41
:102C50001B685B6B019308BDC801060808B5024BF1
:102C60001B681B6C019308BDC801060808B5024B20
:102C70001B685B6C019308BDC801060808B5024BD0
:102C80001B68DB6B019308BDCC01060808B5024B3D
:102C90001B681B68019308BDA001060808B5024B1C
:102CA0001B685B68019308BDA001060808B5024BCC
:102CB0001B685B6A019308BDA001060808B5024BBA
:102CC0001B68DB6B019308BDA001060808B5024B29
:102CD0001B685B6C019308BDA00106088068FFF7C4
:102CE0000DBE70B5002604460D4640F8086FFFF78C
:102CF000EDFD28462570FFF7BDFE2046666070BDDD
:102D000010B504468068FFF7F1FD20784FF6FF719B
:102D1000FFF7A0FE2046FFF7E1FF10BD08B5FFF763
:102D2000DDFF08BD30B50024400818601868E5B222
:102D3000884206D90134082C02D040081860F5E713
:102D40000725024B5B5D137030BD00BF9E6D0A0806
:102D50002DE9F04306468FB080680C46FFF7C6FDAC
:102D60001422002109A8357803F04CF90B23002226
:102D7000284609A9ADF82430FFF78CFE9DF82D30C8
:102D800013B19DF82C5055B100270125B946B8461E
:102D900023795DB1C3B100200FB0BDE8F083DDF849
:102DA00030809DF834909DF83570F1E7002B35D1D7
:102DB000A368434508D18DF820908DF82170BDF8A7
:102DC0002020A3899A42E6D00023A1688DF80F3015
:102DD0000A9804AB0DF10F02FFF7A4FF217985B922
:102DE00089B9A36843450ED38DF820908DF82170E2
:102DF000BDF82020A3899A4205D1049B434502D106
:102E0000C9E70029F9D100230193637B9DF80F20C6
:102E10000093237B3078FFF755FEBCE72B462A460C
:102E20000121CDE90055F5E708B50078FFF71AFE56
:102E3000C0B208BD30B587B00A9D04460095007841
:102E4000FFF730FE3DB9207802A9FFF733FE9DF869
:102E50001430DB07F7D407B030BD00000222002099
:102E6000044B1A60044B054A1860988098719A6068
:102E7000FFF780BE44010020380100200000FFFF62
:102E8000F8B506460D4600248F18BD420CD03368B5
:102E900030469B6815F8011B9847031E01DB1C4454
:102EA000F3E7002C08BF1C462046F8BD70B5054668
:102EB0000C46084649B103F0D1F82B68024621467A
:102EC0002846BDE87040DB68184770BD08B5FFF7BD
:102ED000EDFF08BD03689B68184708B5FFF7E6FFDC
:102EE00008BD38B50D210546FFF7F4FF0A21044659
:102EF0002846FFF7EFFF204438BD38B50546FFF7F9
:102F0000D5FF04462846FFF7ECFF204438BDFFF705
:102F1000F4BF0023012A98BF0A2230B58BB00C46BB
:102F20008DF8243009A92546B4FBF2F404FB1253B2
:102F3000DBB2092B94BF30333733DBB2AA4201F83E
:102F4000013DF0D9FFF7B2FF0BB030BD2DE9F74FCF
:102F500005461946104692461F469DF8306002F01D
:102F600007FB40B150492846FFF7A0FF0446204622
:102F700003B0BDE8F08F27F000444FF0FF32504619
:102F800021464A4B02F0F4FA48B94FF0FF3250465E
:102F90002146464B02F0CEFA08B94549E3E74FF027
:102FA000604250463946434B02F0D8FA08B14249D4
:102FB000D9E74FF0604250463946404B02F0B0FA34
:102FC0000028F4D1002200235046394602F0A8FA26
:102FD000044630B12D212846FFF77CFF044607F157
:102FE00000474FF0000B00204FF000083449DFF895
:102FF000D8905FFA8BF39E4206D942464B4602F0C8
:1030000047F90BF1010BF4E73B46524601F060FE35
:103010008946804602F0EAFA074601F095FF02462B
:103020000B464046494601F051FE0A228046894639
:1030300028463946FFF76DFF044426B1284621494A
:10304000FFF734FF04444FF0000ADFF87CB0013E84
:10305000F6B2FF2E8BD052465B464046494601F001
:10306000EDFF8046894602F099FA071E19DA2D21F4
:103070002846FFF72FFF034679420A22284601938C
:10308000FFF747FF019B034438461C4401F06CFFE7
:1030900002460B464046494601F018FE80468946E6
:1030A000D5E739460023E8E7A66D0A08FFFFEF7F62
:1030B000AA6D0A08FFFFEF41AE6D0A08FFFFEFC1DE
:1030C0000000E03FB26D0A080000244037B5054615
:1030D0001446084601F05AFFE4B202460B46284661
:1030E0000094FFF733FF03B030BD9DF8001000914E
:1030F000FFF72CBF2DE9F04186B000AF05460E4624
:10310000381D142114463B60FFF7D0FD13280ED85C
:103110002846391DFFF7CAFE04461EB12846FFF7B0
:10312000E0FE044420461837BD46BDE8F08100F1BA
:10313000080323F00703E846ADEB030D2246411CCC
:103140003B686846FFF7B2FD69462846FFF7AEFECA
:103150000446C546E1E7002340681A461946FFF7D2
:103160004DBD0000014B024A1A6070474801002023
:10317000B46D0A08024B1A68024B1A60704700BF10
:10318000000000204C0100200021FFF7FBBC0000E4
:103190000022014B9A60704750010020014B1860DB
:1031A000704700BF0800002008B5134B43B100F082
:1031B0007BF903681B699847002801DDAFF30080A5
:1031C0000E4B43B100F020FA03681B6998470028B2
:1031D00001DDAFF300800A4B0BB1AFF30080094B68
:1031E00043B100F09BF903681B699847002801DD93
:1031F000AFF3008008BD00BF000000000000000029
:10320000000000000000000008B5FFF7CDFFFFF749
:103210004DFB014B186008BDCC0500200548064A4F
:1032200008B5121A054902F0DFFE054B054A1A607F
:1032300008BD00BF0040024004400240386F0A0849
:10324000004002401E1C279A002307B51A466FF063
:1032500077010093FFF7A8FC03B05DF804FB0000C2
:1032600007B543880A2B08D0502B0BD1094B1B689C
:103270004BB103B05DF804EB1847FFF7E5FF03B06F
:103280005DF804FB00231A466FF077010093FFF707
:103290008BFCF4E764010020002110B51148FFF712
:1032A00015FD114B1A68114B9A420CBF01220022E6
:1032B0000F4B1A7001D0FFF7B1FFFFF7E7FA044692
:1032C00002F0A8FE0B4B13B12046AFF300800021A3
:1032D0000848FFF7D3FCBDE8104000210648FFF77F
:1032E00059BC00BF9D310A08004002401E1C279AAD
:1032F000600100200000000061320A08704710B52C
:103300000446182100F0C0FB204610BDF8B50E465B
:10331000002400F10807051D17F8011D0A22304698
:10332000FFF7F7FDAF42044401D12046F8BD002C61
:10333000F2D02E213046FFF7CDFD0444ECE700002B
:1033400010B50446044B1122002140F8043B02F062
:1033500059FE204610BD00BFDC6D0A080346074A2F
:1033600010B543F8042B01F1100251F8044B9142BF
:1033700043F8044BF9D10A781A7010BDDC6D0A08C5
:10338000024AC0E90021042202757047DC6D0A0878
:1033900010B59DF8084044EA0324042344EA02449B
:1033A00044EA01644460037510BD000037B5044D64
:1033B00005609DF818500095FFF7EAFF03B030BD97
:1033C000DC6D0A08417470477047704708B50021EA
:1033D000007CFFF79FFB40EAE07008BD08B50121C3
:1033E000007CFFF797FB40EAE07008BD08B5007C61
:1033F000FFF788FB20EAE07008BD08B5007CFFF706
:1034000079FB20EAE07008BD38B50446007C0D4623
:10341000FFF778FB002801DC607C28B12946207C7E
:10342000FFF780FB20EAE07038BD007CFFF782BB2D
:1034300010B50446142100F027FB204610BD70474C
:1034400010B54FF47A73044608460021C4E901130D
:10345000044B20742360012311466374FFF73AFB89
:10346000204610BDF06D0A080022007CFFF73ABB31
:10347000007CFFF767BBFFF7FBBF000010B50446F9
:103480001422002102F0BEFD054B20466360054B6F
:10349000E36040F2011323818123238210BD00BF2A
:1034A000980100209902002030B50E4D87B001A888
:1034B000FFF7E4FF2978BFF35B8F11F001040ED111
:1034C0002846FCF7FBFD50B1214601AA0648FFF74C
:1034D000B7FF2846FCF7F7FD044802F07FFD0248DD
:1034E00007B030BD6801002070010020C9330A0810
:1034F00010B504461422002102F084FD054B20463D
:103500006360054BE36040F2011323818123238232
:1035100010BD00BF1A0300201B04002010B50E4C84
:1035200086B001A8FFF7E4FF2378BFF35B8FDB07CA
:103530000ED42046FCF7C2FD50B1012101AA074874
:10354000FFF77EFF2046FCF7BEFD054802F046FD72
:10355000024806B010BD00BF6C01002084010020AD
:103560003F340A08704741747047704708B5007CC3
:10357000FFF704FA20EAE07008BD08B5007CFFF709
:10358000D5F920EAE07008BD08B5007CFFF7DEF948
:1035900040EAE07008BD08B5007CFFF7CFF940EACB
:1035A000E07008BD007CFFF7D9B970B5467C0446D1
:1035B0000D462EB12946207CBDE87040FFF7AEB91C
:1035C000007CFFF7DBF90028F4DC304670BD10B555
:1035D0000446142100F058FA204610BD4FF0000CAC
:1035E00010B50446084611464FF47A72C4E901C288
:1035F000044A20742260012262741A46FFF786F999
:10360000204610BD206E0A0838B50C4D2978BFF34E
:103610005B8F11F001040FD12846FCF74FFD58B124
:103620002146074B074A0848FFF7D8FF2846FCF712
:103630004AFD064802F0D2FC034838BD9C04002035
:1036400024050020A0040020A80500206B350A08EE
:103650007047F8B5064615460C468F18BC4206D092
:10366000336830469B6814F8011B9847F6E72846F4
:10367000F8BD0022007CFFF7A9B90021007CFFF70C
:10368000ADB90021007CFFF7B1B90021007CFFF744
:10369000B5B90021007CFFF7B9B910B50446142173
:1036A00000F0F2F9204610BD10B54FF47A730446CD
:1036B00008460021C4E90113034B1146236020741E
:1036C000FFF7B4F9204610BD506E0A080022007CB6
:1036D000FFF75CB90023007C1A461946FFF75EB974
:1036E0007FB500221423CDE90122ADF804300B7818
:1036F000007C8DF808304B680393CB6804930B7AF9
:1037000001A90593FFF79CF907B05DF804FB1FB50D
:10371000003B8DF800104FF0640118BF01230391A6
:10372000694601928DF80830FFF7DAFF05B05DF8C1
:1037300004FB0123FFF7EBBF0022007CFFF736B943
:103740000022007CFFF73AB90121FFF7F9BF002200
:1037500040681146FFF74ABAF0B5154689B0112204
:103760000E460446002103A802F04CFC284602F055
:1037700075FC002781B273682846009703AAFFF7FB
:10378000E9F930B139462046FFF7FAFD204609B085
:10379000F0BD204603A9FFF7E1FDF7E700224068EE
:1037A0001146FFF743BA002240681146FFF74EBAB0
:1037B00000224068FFF742BA0022406881F0010110
:1037C000FFF72CBA002340681A461946FFF71EBAC5
:1037D000002240681146FFF7F9B900220221406833
:1037E000FFF7FCB9002340681A46FFF7E7B900006D
:1037F0000422024B5A60024A1A607047BC0500203E
:10380000786E0A08002340681A46FFF7D7B90022ED
:1038100002214068FFF7E2B9002240681146FFF735
:10382000D5B9002240681146FFF7E0B9002340688F
:103830001A461946FFF7E2B9002340681A461946AE
:10384000FFF7E4B900214068FFF708BA002140689B
:10385000FFF70CBA0022406881F00101FFF7DEB9E2
:1038600000224068FFF7EAB9002240681146FFF7DE
:10387000EDB9002240681146FFF7D8B970B515467A
:103880008EB0044608A8FFF75BFD1122002103A8B3
:1038900002F0B8FB0026284602F0E0FB0A4B009637
:1038A00081B25B68284603AAFFF754F930B131466C
:1038B0002046FFF765FD20460EB070BD204603A9E7
:1038C000FFF74CFDF7E700BFBC050020024B034AA1
:1038D0001A6000225A607047C4050020B46E0A08BE
:1038E000024B986808B1FEF7F9BF70472C01002021
:1038F000172870B5044601D9002070BDA0F10D0352
:10390000022B0BD9012824D800F09AF80021007C62
:10391000FFF784F880F00100C0B2EEE7124E317874
:10392000BFF35B8F11F001050DD13046FCF7C6FBEC
:1039300048B129460D48FFF7D4F93046FCF7C3FBE0
:103940000B4802F04BFB094B1878FFF79BF8002857
:10395000D2D1123C012C05D8FFF756FE007CFFF7B0
:1039600005F8D7E70120C8E7280100202C01002036
:10397000E1380A08172838B504460D460AD8FF2949
:1039800008D0FFF7B5FF28B129462046BDE83840EA
:10399000FEF75CBF38BD38B504460D46FEF75EFF46
:1039A000FF2810D0062804D84D2323FA00F0C307BF
:1039B00009D42046FFF79CFF28B129462046BDE8E0
:1039C0003840FEF753BF38BD10B50446FEF746FF3A
:1039D000031FDBB2012B08D92046FFF789FF20B176
:1039E0002046BDE81040FEF749BF002010BD000092
:1039F000002307B51A46194600930348FFF7D6FC83
:103A000003B05DF804FB00BFD00500207047000044
:103A1000002370B5202543801423084E04460380FC
:103A2000314685600561284600F030F83146606017
:103A3000284600F02BF8E060204670BDE86E0A08CA
:103A400030B50E4D87B02978BFF35B8F11F00104BC
:103A500011D12846FCF732FB68B101A8FFF7D8FF67
:103A6000214601AA0648FFF71FFE2846FCF72BFB5C
:103A7000044802F0B3FA024807B030BDE805002060
:103A8000EC0500200D3A0A08FCF70BBBFCF707BB5E
:103A90002DE9F04F8FB01D4606460F46144600F044
:103AA00097F9A44BCDE9000193F90090B9F1FF3FDC
:103AB00038D022462B462046294601F059FD834640
:103AC00080BB32463B463046394601F051FD8046C8
:103AD000002840F0D9804FF0000A4FF0000B30462C
:103AE000394652465B4601F011FD00B352465B4633
:103AF0002046294601F00AFD0390002848D0012203
:103B00008D4BCDE90667CDE90845CDE90AABCDE996
:103B10000423CDF83080B9F1000F68D00023874C22
:103B2000CDE90034DDE900010FB0BDE8F08FDDE93B
:103B3000000100F0ADFF8046002869D0DDE90001FA
:103B40004FF000084FF0000942464B4601F0DEFC02
:103B50000028E7D03046394600F09AFF0028E1D02F
:103B60002046294600F094FF0028DBD004200021E5
:103B7000704B714A93F90030CDE90667022BCDE90D
:103B80000845CDE90A8904900C91059272D176E03E
:103B90002046294600F07CFF0028C3D052465B46F1
:103BA0002046294601F0BCFC0028BBD00121039A25
:103BB000604B0C9293F900305F4ACDE90667CDE97E
:103BC0000845CDE90412002B7BD1CDE90AAB04A84E
:103BD00000F064FF00287BD00C9B1BB1FFF76EF850
:103BE0000C9B0360DDE90A34CDE900349AE704A8B0
:103BF00000F054FF002870D00C9B002BF2D0FFF790
:103C00005DF8DDE90A34CDE900340C9B036089E7F7
:103C10003046394600F03CFF00288FD02046294628
:103C200000F036FF002889D0DDE900231046194650
:103C300001F09EFC002840F0A480032204923D4A3B
:103C40003D4B92F90080CDE90667CDE908450C901F
:103C50000593B8F1000F45D14FF06048DFF8F090C0
:103C600052465B4630463946CDE90A8901F058FC98
:103C7000002846D104A800F011FF0028ACD1FFF7BE
:103C80001DF822230360A7E70022002320462946CF
:103C900001F03CFC00283FF445AF012200202749F9
:103CA000254BB9F1020FCDE90667CDE90845CDE90D
:103CB0000A01CDF830B00492059398D1CDE9000106
:103CC00030E700201E49022BCDE90A017FF47FAFC7
:103CD000FEF7F4FF212303607EE7FEF7EFFF2123C9
:103CE000036089E7304600263946164F52465B4648
:103CF000CDE90A6701F014FC60BBB8F1020FBED039
:103D0000B8E70022104B2046294601F097F90446F7
:103D10000D4600F0CBFE22462B4601F0F7FB60BBC0
:103D20004FF06042094B0349CDE90A2391F9008025
:103D3000E3E700BF04000020EC6E0A080000F03F3B
:103D40000000F0FF0000F07F0000E03FFFFFEFC742
:103D5000FFFFEF470022194B2046294601F06EF97C
:103D600004460D4600F0A2FE22462B4601F0CEFB93
:103D700018B90022124BCDE90A23124B93F90080A7
:103D8000BBE701220F4BCDE9066793F900900E4B7C
:103D9000CDE90845CDE90423CDF83080B9F1000F15
:103DA0003FF413AF52465B465046594601F070FA55
:103DB000B9F1020FCDE90A018AD008E70000E03F1F
:103DC0000000F0FF04000020EC6E0A080000000074
:103DD0002DE9F04F23F000451F46984655EA0203AF
:103DE00095B037D08B4689466F492BF000448C4202
:103DF0008246034628DC164635D08D4224DC6A49CB
:103E00008D421FD0B9F1000F36DB00210291002A4C
:103E10004DD1654A954200F09D80644A954200F07C
:103E2000AB80B8F1804F00F0D484614A90453ED118
:103E3000B9F1000F3BDB5046594615B0BDE8F04FD5
:103E400000F05EBD002ADDD004F1404404F580148A
:103E500023430BD10023554CCDE90034DDE90001AB
:103E600015B0BDE8F08F08B9A542C8DD514815B0BE
:103E7000BDE8F04F00F014BE4F498D4200F385803D
:103E8000A1F154718D420EDD2915A1F2FF311429E3
:103E900040F3A984C1F1340122FA01F000FA01F1E2
:103EA000914200F0F68400210291002AB5D05046DC
:103EB00059460C9300F0E8FD0C9BCDE9000143BB93
:103EC00024B13A4B29F040429A4222D1B8F1000F76
:103ED00007DADDE900230020344901F0D9F9CDE902
:103EE0000001B9F1000FB9DA029B04F1404404F576
:103EF0008014234340F09C84DDE9002310461946DA
:103F000000F0E4FE02460B4601F0C2F9CDE90001E3
:103F1000A4E7029A4FEAD973013B0C93134337D0BD
:103F2000264B9D424EDD03F104739D42244B40F32A
:103F3000DF839C4240F35E83B8F1000F40F35E8361
:103F400017A3D3E900231046194601F077F8CDE90D
:103F5000000183E704F1404202F5801213433FF46D
:103F600079AF174B9C4240F37383B8F1000FC0F256
:103F70004583CDE9006771E7B8F1000FC0F21F84F7
:103F800050465946CDE9000168E7022102913EE71B
:103F9000524650465B465946B2E700BFAFF3008039
:103FA0009C7500883CE4377E0000F07F0000F03F05
:103FB0000000E03FF06E0A08FFFF3F430000E041D1
:103FC000FFFFEF3FD04B09EA0303002B40F056837D
:103FD000DDE900010022CD4B01F030F86FF0340C28
:103FE0000C46CDE900012315C94AC4F31304A3F21A
:103FF000FF3344F07F5503EB0C0194420D9145F4DF
:10400000401540F32E83C34B9C4240F31E84002393
:104010000024CDE90A34CDE9123400234FF0000A20
:10402000BD4C0131CDE906340D91A5F58015DDE9D2
:1040300000012946DDE90623CDE9080100F046FE2E
:10404000DDE9062380468946DDE9080100F040FEEF
:1040500002460B460020B04901F01AF903460C460F
:104060001A46CDE90E3440462346494600F0E6FFA5
:104070000C46034601462246CDE9043400240020C4
:104080006B1043F0005303F50023CDE9001203EB5E
:104090000A010094DDE900AB04460D4602460B46DA
:1040A0005046594600F0CAFF02460B464046494674
:1040B00000F00CFEDDE906238046894620462946AD
:1040C00000F004FE02460B46DDE9080100F0FEFDAB
:1040D00052465B4600F0B2FF02460B464046494658
:1040E00000F0F4FDDDE90E2300F0A8FFDDE904890E
:1040F00004460D4642464B4640464946CDE90645F4
:1041000000F09CFF6EA3D3E9002304460D4600F0A7
:1041100095FF6DA3D3E9002300F0DAFD22462B467C
:1041200000F08CFF6AA3D3E9002300F0D1FD224602
:104130002B4600F083FF68A3D3E9002300F0C8FDFD
:1041400022462B4600F07AFF65A3D3E9002300F056
:10415000BFFD22462B4600F071FF63A3D3E9002385
:1041600000F0B6FD22462B4604460D461046194681
:1041700000F064FF02460B462046294600F05EFF31
:1041800004460D4652465B4640464946CDE9048901
:1041900000F09EFDDDE9062300F050FF22462B468D
:1041A00000F096FD524604460D465B465046594681
:1041B00000F044FFA046A94604460D460022574B96
:1041C000CDE9104500F084FD42464B46CDE90E890D
:1041D00000F07EFD0D46009C2B4622465046594677
:1041E00000F02CFF804689460022204629464B4B92
:1041F000CDE9088900F06AFDDDE9102300F066FDD5
:1042000002460B46DDE90E0100F060FDDDE9042306
:1042100000F014FF224680468946DDE906012B4660
:1042200000F00CFF02460B464046494600F050FDA8
:1042300082468B46DDE9080152465B4600F048FDA8
:104240002BA3D3E90023009C0D46204600F0F6FE88
:10425000DDE908238046894620462946CDE90489C0
:1042600000F034FD02460B465046594600F02EFD44
:1042700021A3D3E9002300F0E1FE21A3D3E9002329
:10428000804689462046294600F0D8FE02460B4665
:104290004046494600F01CFDDDE9122300F018FD00
:1042A00082460D988B4600F05FFE80468946DDE928
:1042B000040152465B4600F00BFD31E0AFF3008095
:1042C000EF4E454A287ECA3F65DBC9934A86CD3FFB
:1042D00001411DA96074D13F4D268F515555D53FE1
:1042E000FFAB6FDBB66DDB3F033333333333E33F79
:1042F000000000E009C7EE3FFD033ADC09C7EE3FCE
:10430000F5015B14E02F3EBE0000F07F000040434B
:104310008E98030079B60B000000F03F00000840C3
:10432000DDE90A2300F0D4FC42464B4600F0D0FC05
:10433000009C42464B4620460D4600F0C7FCDDE996
:104340000A2300F0C3FCDDE9042300F0BFFC0246B1
:104350000B465046594600F0B9FC82468B46029BFC
:104360000C9A013B13434FF000020CBFDA4BDB4BBE
:10437000CDE90067CDE9022300230093DDE9008940
:104380003046424639464B4600F0A0FC22462B46BA
:1043900000F054FE32463B4606460F46504659460C
:1043A00000F04CFE02460B463046394600F090FCC9
:1043B000424682468B464B462046294600F03EFE4A
:1043C00006460F4650463B465946324600F080FCB2
:1043D000C34B044699420D46884640F3148101F1CF
:1043E0003F4303F5E003034340F01282A6A3D3E961
:1043F00000235046594600F06BFC3246CDE90001DF
:104400003B462046294600F061FC02460B46DDE9AA
:10441000000101F0A3F8002840F0FA81C8F30A5324
:104420004FF480120020A3F2FE3342FA03F3434418
:10443000AC4CC3F30A52A2F2FF3244FA02FCC3F3BB
:10444000130523EA0C01C2F1140445F48015B8F1F8
:10445000000F0B4645FA04F10C91B8BF49420246E1
:10446000B8BF0C913046394600F030FC06460F4686
:1044700050463B465946324600F02AFC0D460C9BFE
:104480001B050093002482A3D3E90023204629467C
:1044900000F0D4FD3246804689463B4620462946F8
:1044A00000F014FC02460B465046594600F00EFC44
:1044B00079A3D3E9002300F0C1FD79A3D3E9002358
:1044C00006460F462046294600F0B8FD02460B4638
:1044D0003046394600F0FCFB06460F4632463B4666
:1044E0004046494600F0F4FB42464B460D46044622
:1044F00000F0ECFB02460B463046394600F0E6FB86
:104500002B4682468B4622462946204600F096FDE1
:1045100065A3D3E9002306460F4600F08FFD64A390
:10452000D3E9002300F0D2FB32463B4600F086FD83
:1045300061A3D3E9002300F0CBFB32463B4600F0F9
:104540007DFD5FA3D3E9002300F0C0FB32463B466C
:1045500000F074FD5CA3D3E9002300F0B9FB324600
:104560003B4600F06BFD02460B462046294600F014
:10457000ADFB06460F4632463B462946204600F034
:104580005DFD0022804689464FF080433046394623
:1045900000F09CFB02460B464046494600F078FE80
:1045A000524606460F465B462946204600F046FD29
:1045B00052465B4600F08CFB02460B4630463946BD
:1045C00000F084FB2B46224600F080FB02460B469F
:1045D0000020424900F07AFB009D0D44B5F5801F94
:1045E000C0F253812946DDE9022300F027FDCDE921
:1045F000000133E4B8F1000FFFF6A2AC0023002461
:10460000CDE900342AE4DFF8E4C021F0004363453B
:1046100040F3F680344B0B4403430AD132463B4609
:1046200000F054FB52465B4600F08EFF00283FF43A
:10463000F5AE27A3D3E90023DDE9020100F0FEFC7B
:1046400023A3D3E9002300F0F9FCCDE9000105E440
:10465000B8F1000FD2DA07F1004300960193FFF79B
:10466000FDBB00230024CDE90A34CDE91234002338
:104670001A4C4FF0000ACDE90634D8E44FF0000C94
:10468000B1E400BFAFF30080FE822B654715973C75
:1046900000000000432EE63FEF39FAFE422EE63FCF
:1046A000396CA80C615C20BED0A4BE726937663E2E
:1046B000F16BD2C541BDBB3E2CDE25AF6A56113F22
:1046C00093BDBE166CC1663F3E5555555555C53F09
:1046D00059F3F8C21F6EA5010000F0BF0000F03FC3
:1046E000FFFF8F40FFFF0F0000346F3FFFCB904074
:1046F0009C42FFF67FAF7E4B9C423FF71DACDDE94D
:10470000000100227A4B00F0E1FA6BA3D3E9002309
:1047100004460D4600F092FC69A3D3E900238246CB
:104720008B462046294600F089FC002280468946B7
:10473000204629466F4B00F081FC02460B4662A1E1
:10474000D1E9000100F0C2FA22462B4600F076FCC7
:1047500002460B460020684900F0B8FA22462B4674
:1047600004460D461046194600F068FC02460B460A
:104770002046294600F062FC55A3D3E9002300F04F
:104780005DFC02460B464046494600F09FFA8046D3
:1047900089465046594642464B46002400F098FA56
:1047A00052465B4620460D4600F090FA02460B4604
:1047B0004046494600F08AFA82468B46CFE552468B
:1047C0005B4600204A4900F063FDCDE90001FFF798
:1047D00045BB524650465B46594600F02FFCCDE99A
:1047E0000001FFF73BBB002A41D1C1F1140145FA9A
:1047F00001F000FA01F1A94255D00292FFF70DBB7A
:104800003D4A934256DCDDE9001200910C9139E6F5
:1048100031A3D3E90023DDE9020100F00FFC2EA350
:10482000D3E9002300F00AFCCDE90001FFF716BB35
:10483000029B012B7FF412ABDDE90045224605F116
:104840000043CDE90023FFF709BB25A4D4E90034D8
:10485000CDE90A3424A4D4E90034CDE9123400238C
:10486000264C4FF4802ACDE90634FFF7E0BB5046D2
:104870005946029300F008F9029BCDE90001002B94
:104880007FF486AB0293FFF71BBB0C9A00F0A0F9F4
:10489000A9E600F00100C0F102010291002A3FF4F4
:1048A000BCAAFFF704BB00F00100C0F102020292B3
:1048B000FFF7B3BA1B15B3E5000000604715F73FDB
:1048C00044DF5DF80BAE543E555555555555D53F13
:1048D000FE822B654715F73F9C7500883CE4377EC8
:1048E0000000004003B8E23F06D0CF43EBFD4C3E52
:1048F0000000F03F0000D03F0000E03F0000F83F24
:10490000604A2DE9F0418A430E46054600F0978043
:1049100000290B4604464EDD09155AD0C3F3130394
:10492000CA0743F48013A1F2FF3E03D45B0003EBFC
:10493000D47364004FF0000C162566464FF4001245
:10494000E10F4FEA6E0E01EB43036400B118994288
:1049500002DC5B1A8E1894445B00013D03EBD473B8
:104960004FEA52024FEA4404F0D12F4620204FF084
:10497000004209E03DD0E10F01384FEA520201EB5D
:1049800043034FEA44043DD0B34202EB0501F1DD9D
:10499000002901EB020509DBB0469B1BA14288BF41
:1049A00003F1FF334646641A1744E4E7002DF3DBB6
:1049B00006F10108F1E721F00042024357D0002937
:1049C0004BD1E20A134615396405002AF9D0D70203
:1049D00052D400205B00DE02054600F10100F9D54B
:1049E0001A4623468440C0F12000C3401343491BAC
:1049F00094E7A142BFD8002901EB0205D6DB984617
:104A00000023CFE7234313D178084FEA6C0303F167
:104A10007F5303F500131CF0010F18BF40F0004056
:104A200003EB0E5502462B4610461946BDE8F081B1
:104A30007B1C16BF781C0CF1010C4008E5E7024610
:104A40000B4600F0FBFA2A46334600F041F90246D5
:104A50000B4610461946BDE8F081024600F036F9D3
:104A600002460B4600F014FC02460B46DCE7024609
:104A700019461046BDE8F081234620204FF0FF354F
:104A8000B3E700BF0000F07F21F00041704700BF96
:104A900041F0004000F58010C00F704700207047C3
:104AA00000200149704700BF0000F87FF0B5C1F356
:104AB0000A5CACF2FF36132E02460B460D46074643
:104AC00083B04FEAD1742FDC002E4CDB3D493141DD
:104AD00003EA010010432CD003EA510352EA030712
:104AE0004FEA51010BD04FF48023132E0CBF4FF02F
:104AF0000047002725EA010143FA06F50D43324934
:104B00002B4601EBC404D4E900453A462046294629
:104B100000F0DEF8CDE90001DDE9000122462B4678
:104B200000F0D4F803B0F0BD332E06DDB6F5806F8B
:104B300045D01046194603B0F0BD4FF0FF31ACF23E
:104B4000134C21FA0CF10842F3D010EA51024FEA5B
:104B50005103D4D04FF0804220EA030742FA0CFC04
:104B600047EA0C07CBE721F0004101431946E2D0A8
:104B7000C3F313031F437B423B436D0C1B0B6D04BC
:104B800003F4002343EA05010B460F4901EBC4017E
:104B9000D1E900673046394600F09AF8CDE90001C6
:104BA000DDE9000132463B4600F090F8024621F074
:104BB000004141EAC4731046194603B0F0BD00F04D
:104BC00087F8B8E7FFFF0F00F86E0A080000000042
:104BD000F8B5C1F30A5304460D460E46174673BB9B
:104BE000034621F00046334328D0314B002200F029
:104BF00025FA304B04469F420D461ADB0E46C1F3A0
:104C00000A53363B40F2FE723B44934220DC002BB9
:104C10003CDC13F1350F2CDA4CF250339F4217DC99
:104C200005F0004343F0D27141F4B731224841F01E
:104C30001F011BA3D3E9002300F000FAF8BD40F2E6
:104C4000FF729342DED102460B4600F041F8F8BDF8
:104C500005F0004444F0FC4141F45F1141F410516F
:104C600011A3D3E90023154841F03C0100F0E6F917
:104C7000F8BD26F0FF4626F4E006363346EA035137
:104C8000204600220E4B00F0D9F9F8BD26F0FF4671
:104C900026F4E006204646EA0351F8BDAFF3008053
:104CA00059F3F8C21F6EA5019C7500883CE4377E5D
:104CB00000005043B03CFFFF59F3F8C29C750088D8
:104CC0000000903C81F0004102E000BF83F000430F
:104CD00030B54FEA41044FEA430594EA050F08BF97
:104CE00090EA020F1FBF54EA000C55EA020C7FEA5B
:104CF000645C7FEA655C00F0E2804FEA5454D4EBD8
:104D00005555B8BF6D420CDD2C4480EA020281EAA1
:104D1000030382EA000083EA010180EA020281EAD9
:104D20000303362D88BF30BD11F0004F4FEA01312B
:104D30004FF4801C4CEA113102D0404261EB41013A
:104D400013F0004F4FEA03334CEA133302D05242C0
:104D500063EB430394EA050F00F0A780A4F101047C
:104D6000D5F1200E0DDB02FA0EFC22FA05F28018B6
:104D700041F1000103FA0EF2801843FA05F359419C
:104D80000EE0A5F120050EF1200E012A03FA0EFC1B
:104D900028BF4CF0020C43FA05F3C01851EBE37145
:104DA00001F0004507D54FF0000EDCF1000C7EEB62
:104DB00000006EEB0101B1F5801F1BD3B1F5001FA0
:104DC0000CD349085FEA30004FEA3C0C04F10104BF
:104DD0004FEA445212F5800F80F09A80BCF1004FE8
:104DE00008BF5FEA500C50F1000041EB045141EA6A
:104DF000050130BD5FEA4C0C404141EB0101013C33
:104E000028BFB1F5801FE9D291F0000F04BF014621
:104E10000020B1FA81F308BF2033A3F10B03B3F1F3
:104E200020020CDA0C3208DD02F1140CC2F10C0283
:104E300001FA0CF021FA02F10CE002F11402D8BFE1
:104E4000C2F1200C01FA02F120FA0CFCDCBF41EAAD
:104E50000C019040E41AA2BF01EB0451294330BD7C
:104E60006FEA04041F3C1CDA0C340EDC04F1140459
:104E7000C4F1200220FA04F001FA02F340EA030030
:104E800021FA04F345EA030130BDC4F10C04C4F176
:104E9000200220FA02F001FA04F340EA0300294656
:104EA00030BD21FA04F0294630BD94F0000F83F4A0
:104EB000801306BF81F480110134013D4EE77FEA83
:104EC000645C18BF7FEA655C29D094EA050F08BFCF
:104ED00090EA020F05D054EA000C04BF19461046B0
:104EE00030BD91EA030F1EBF0021002030BD5FEAF4
:104EF000545C05D14000494128BF41F0004130BD1C
:104F000014F580043CBF01F5801130BD01F000456F
:104F100045F0FE4141F470014FF0000030BD7FEAE2
:104F2000645C1ABF194610467FEA655C1CBF0B46DD
:104F3000024650EA013406BF52EA033591EA030FF4
:104F400041F4002130BD00BF90F0000F04BF0021EC
:104F5000704730B54FF4806404F132044FF000051F
:104F60004FF0000150E700BF90F0000F04BF002198
:104F7000704730B54FF4806404F1320410F00045FE
:104F800048BF40424FF000013EE700BF42004FEAF9
:104F9000E2014FEA31014FEA02701FBF12F07F4376
:104FA00093F07F4F81F06051704732F07F4208BF2D
:104FB000704793F07F4F04BF41F40021704730B534
:104FC0004FF4607401F0004521F000411CE700BF80
:104FD00050EA010208BF704730B54FF000050AE003
:104FE00050EA010208BF704730B511F0004502D504
:104FF000404261EB41014FF4806404F132045FEA06
:10500000915C3FF4D8AE4FF003025FEADC0C18BFAE
:1050100003325FEADC0C18BF033202EBDC02C2F1A0
:10502000200300FA03FC20FA02F001FA03FE40EA32
:105030000E0021FA02F11444BDE600BF70B54FF036
:10504000FF0C4CF4E06C1CEA11541DBF1CEA135514
:1050500094EA0C0F95EA0C0F00F0DEF82C4481EA7C
:10506000030621EA4C5123EA4C5350EA013518BF9C
:1050700052EA033541F4801143F4801338D0A0FB89
:1050800002CE4FF00005E1FB02E506F00042E0FB36
:1050900003E54FF00006E1FB03569CF0000F18BF3C
:1050A0004EF0010EA4F1FF04B6F5007F64F54074E4
:1050B00004D25FEA4E0E6D4146EB060642EAC62177
:1050C00041EA55514FEAC52040EA5E504FEACE2EE4
:1050D000B4F1FD0C88BFBCF5E06F1ED8BEF1004FE7
:1050E00008BF5FEA500E50F1000041EB045170BD63
:1050F00006F0004646EA010140EA020081EA0301A7
:10510000B4EB5C04C2BFD4EB0C0541EA045170BDA2
:1051100041F480114FF0000E013C00F3AB8014F11C
:10512000360FDEBF002001F0004170BDC4F1000465
:10513000203C35DA0C341BDC04F11404C4F12005E6
:1051400000FA05F320FA04F001FA05F240EA020041
:1051500001F0004221F0004110EBD37021FA04F677
:1051600042EB06015EEA430E08BF20EAD37070BD31
:10517000C4F10C04C4F1200500FA04F320FA05F090
:1051800001FA04F240EA020001F0004110EBD37092
:1051900041F100015EEA430E08BF20EAD37070BD02
:1051A000C4F1200500FA05F24EEA020E20FA04F3DB
:1051B00001FA05F243EA020321FA04F001F000418A
:1051C00021FA04F220EA020000EBD3705EEA430EFB
:1051D00008BF20EAD37070BD94F0000F0FD101F02A
:1051E0000046400041EB010111F4801F08BF013C63
:1051F000F7D041EA060195F0000F18BF704703F0A1
:105200000046520043EB030313F4801F08BF013D27
:10521000F7D043EA0603704794EA0C0F0CEA1355E3
:1052200018BF95EA0C0F0CD050EA410618BF52EA9D
:105230004306D1D181EA030101F000414FF00000A3
:1052400070BD50EA410606BF1046194652EA4306B1
:1052500019D094EA0C0F02D150EA013613D195EA25
:105260000C0F05D152EA03361CBF104619460AD16D
:1052700081EA030101F0004141F0FE4141F4700177
:105280004FF0000070BD41F0FE4141F4780170BD67
:1052900070B54FF0FF0C4CF4E06C1CEA11541DBFCC
:1052A0001CEA135594EA0C0F95EA0C0F00F0A7F8CE
:1052B000A4EB050481EA030E52EA03354FEA0131FB
:1052C00000F088804FEA03334FF0805545EA13130E
:1052D00043EA12634FEA022245EA111545EA1065D6
:1052E0004FEA00260EF000419D4208BF964244F16D
:1052F000FD0404F5407402D25B084FEA3202B61A8C
:1053000065EB03055B084FEA32024FF480104FF45F
:10531000002CB6EB020E75EB030E22BFB61A7546D3
:1053200040EA0C005B084FEA3202B6EB020E75EB66
:10533000030E22BFB61A754640EA5C005B084FEACE
:105340003202B6EB020E75EB030E22BFB61A75469B
:1053500040EA9C005B084FEA3202B6EB020E75EBA6
:10536000030E22BFB61A754640EADC0055EA060E67
:1053700018D04FEA051545EA16754FEA06164FEAAA
:10538000C30343EA52734FEAC2025FEA1C1CC0D156
:1053900011F4801F0BD141EA00014FF000004FF0E3
:1053A000004CB6E711F4801F04BF01430020B4F1A4
:1053B000FD0C88BFBCF5E06F3FF6AFAEB5EB030C5C
:1053C00004BFB6EB020C5FEA500C50F1000041EB59
:1053D000045170BD0EF0004E4EEA113114EB5C0426
:1053E000C2BFD4EB0C0541EA045170BD41F48011F9
:1053F0004FF0000E013C90E645EA060E8DE60CEA01
:10540000135594EA0C0F08BF95EA0C0F3FF43BAF1D
:1054100094EA0C0F0AD150EA01347FF434AF95EAD4
:105420000C0F7FF425AF104619462CE795EA0C0FB8
:1054300006D152EA03353FF4FDAE1046194622E785
:1054400050EA410618BF52EA43067FF4C5AE50EA5F
:1054500041047FF40DAF52EA43057FF4EBAE12E74F
:105460004FF0FF3C06E000BF4FF0010C02E000BF30
:105470004FF0010C4DF804CD4FEA410C7FEA6C5C13
:105480004FEA430C18BF7FEA6C5C1BD001B050EAB6
:10549000410C0CBF52EA430C91EA030F02BF90EAA1
:1054A000020F0020704710F1000F91EA030F58BF60
:1054B000994208BF90422CBFD8176FEAE37040F0C2
:1054C000010070474FEA410C7FEA6C5C02D150EA60
:1054D000013C07D14FEA430C7FEA6C5CD6D152EA1B
:1054E000033CD3D05DF8040B704700BF84461046E0
:1054F00062468C461946634600E000BF01B5FFF7DF
:10550000B7FF002848BF10F1000F01BD4DF808EDAE
:10551000FFF7F4FF0CBF012000205DF808FB00BF7F
:105520004DF808EDFFF7EAFF34BF012000205DF8D9
:1055300008FB00BF4DF808EDFFF7E0FF94BF012026
:1055400000205DF808FB00BF4DF808EDFFF7CEFF27
:1055500094BF012000205DF808FB00BF4DF808ED66
:10556000FFF7C4FF34BF012000205DF808FB00BF37
:105570004FEA410C7FEA6C5C02D150EA013C0AD14F
:105580004FEA430C7FEA6C5C02D152EA033C02D141
:105590004FF0000070474FF0010070474FEA4102A2
:1055A00012F5001215D211D56FF47873B3EB625275
:1055B00012D94FEAC12343F0004343EA505311F09C
:1055C000004F23FA02F018BF404270474FF000002E
:1055D000704750EA013005D111F0004008BF6FF06C
:1055E000004070474FF00000704700BF4A0011D2E2
:1055F00012F5001211D20DD56FF47873B3EB62522D
:105600000ED44FEAC12343F0004343EA505323FA38
:1056100002F070474FF00000704750EA013002D1AD
:105620004FF0FF3070474FF0000070474FEA4102E3
:10563000B2F1E04324BFB3F5001CDCF1FE5C0DD9F0
:1056400001F0004C4FEAC0024CEA5070B2F1004F3A
:1056500040EB830008BF20F00100704711F0804F3D
:1056600021D113F13872BCBF01F00040704741F402
:1056700080114FEA5252C2F11802C2F1200C10FA06
:105680000CF320FA02F018BF40F001004FEAC123EA
:105690004FEAD32303FA0CFC40EA0C0023FA02F38E
:1056A0004FEA4303CCE77FEA625307D150EA013364
:1056B0001EBF4FF0FE4040F44000704701F0004034
:1056C00040F0FE4040F40000704700BF80F0004012
:1056D00002E000BF81F0004142001FBF5FEA4103CA
:1056E00092EA030F7FEA226C7FEA236C6AD04FEACA
:1056F0001262D2EB1363C1BFD2184140484041400F
:10570000B8BF5B42192B88BF704710F0004F40F4C0
:10571000000020F07F4018BF404211F0004F41F4DC
:10572000000121F07F4118BF494292EA030F3FD0A8
:10573000A2F1010241FA03FC10EB0C00C3F12003BB
:1057400001FA03F100F0004302D5494260EB40004A
:10575000B0F5000F13D3B0F1807F06D340084FEAB5
:10576000310102F10102FE2A51D2B1F1004F40EBAA
:10577000C25008BF20F0010040EA03007047490012
:1057800040EB0000013A28BFB0F5000FEDD2B0FAAF
:1057900080FCACF1080CB2EB0C0200FA0CF0AABFD2
:1057A00000EBC25052421843BCBFD0401843704770
:1057B00092F0000F81F4000106BF80F40000013276
:1057C000013BB5E74FEA41037FEA226C18BF7FEA4D
:1057D000236C21D092EA030F04D092F0000F08BF8F
:1057E0000846704790EA010F1CBF0020704712F076
:1057F0007F4F04D1400028BF40F00040704712F1B5
:1058000000723CBF00F50000704700F0004343F019
:10581000FE4040F4000070477FEA226216BF08464F
:105820007FEA23630146420206BF5FEA412390EA12
:10583000010F40F4800070474FF0000304E000BF08
:1058400010F0004348BF40425FEA000C08BF7047B9
:1058500043F0964301464FF000001CE050EA01027D
:1058600008BF70474FF000030AE000BF50EA010292
:1058700008BF704711F0004302D5404261EB41017F
:105880005FEA010C02BF84460146002043F0B643A4
:1058900008BFA3F18053A3F50003BCFA8CF2083AC9
:1058A000A3EBC25310DB01FA02FC634400FA02FCD2
:1058B000C2F12002BCF1004F20FA02F243EB0200D9
:1058C00008BF20F00100704702F1200201FA02FC3B
:1058D000C2F1200250EA4C0021FA02F243EB02002E
:1058E00008BF20EADC7070474FF0FF0C1CEAD05272
:1058F0001EBF1CEAD15392EA0C0F93EA0C0F6FD033
:105900001A4480EA010C400218BF5FEA41211ED010
:105910004FF0006343EA501043EA5111A0FB0131FC
:105920000CF00040B1F5000F3EBF490041EAD371D1
:105930005B0040EA010062F17F02FD2A1DD8B3F14D
:10594000004F40EBC25008BF20F00100704790F0BC
:10595000000F0CF0004C08BF49024CEA502040EA0E
:1059600051207F3AC2BFD2F1FF0340EAC2507047D4
:1059700040F400004FF00003013A5DDC12F1190F12
:10598000DCBF00F000407047C2F10002410021FA84
:1059900002F1C2F1200200FA02FC5FEA310040F19C
:1059A000000053EA4C0308BF20EADC70704792F015
:1059B000000F00F0004C02BF400010F4000F013A4D
:1059C000F9D040EA0C0093F0000F01F0004C02BF48
:1059D000490011F4000F013BF9D041EA0C018FE7B7
:1059E0000CEAD15392EA0C0F18BF93EA0C0F0AD0BD
:1059F00030F0004C18BF31F0004CD8D180EA0100E3
:105A000000F00040704790F0000F17BF90F0004F7B
:105A1000084691F0000F91F0004F14D092EA0C0F5D
:105A200001D142020FD193EA0C0F03D14B0218BFF0
:105A3000084608D180EA010000F0004040F0FE4036
:105A400040F40000704740F0FE4040F440007047D2
:105A50004FF0FF0C1CEAD0521EBF1CEAD15392EA51
:105A60000C0F93EA0C0F69D0A2EB030280EA010C41
:105A700049024FEA402037D04FF0805343EA1111DA
:105A800043EA10130CF000408B4238BF5B0042F138
:105A90007D024FF4000C8B4224BF5B1A40EA0C00DD
:105AA000B3EB510F24BFA3EB510340EA5C00B3EB0F
:105AB000910F24BFA3EB910340EA9C00B3EBD10FFD
:105AC00024BFA3EBD10340EADC001B0118BF5FEA4F
:105AD0001C1CE0D1FD2A3FF650AF8B4240EBC25078
