:02000002D0002C
:1040000000400D0034B30D00000006000D00050156
:0840100004019A080000000001
:04401800CCA30D0028
:1040200009480A49884208B505D0094A824202D0A7
:10403000121A06F00FF90748074A0021121A06F073
:1040400017F9014808BD00BF4CE403209CB20D00E5
:10405000BCE40320BCE40320EDE7032070B5074E69
:10406000074C03F0AFFBA41BA4080025A54200D118
:1040700070BD56F8043B98470135F7E760B20D0074
:1040800084B20D0000F054BC08B500F0C9FABDE8D8
:10409000084003F04FBB03F057B803F055B803F0E6
:1040A0005BB8000008B5034A00210C2002F0B8FFFD
:1040B000FEE700BF716D0D000078B0FA80F0400996
:1040C0007047012303707047F8B50C1E074616466B
:1040D0000CDA0A2A0AD12D2103F0A4F9614205461F
:1040E000F2B2384603F0BDF92844F8BD2146002558
:1040F000F6E7000038B504464A4D03F06BFC4A4928
:1041000003F08CF903F066FC0A22B4F90010FFF703
:10411000DBFF03F05FFC294603F080F903F05AFC53
:104120000A22B4F90210FFF7CFFF03F053FC29462F
:1041300003F074F903F04EFC0A22B4F90410FFF7FF
:10414000C3FF03F047FC294603F068F903F042FC83
:10415000364903F063F903F03DFC0A22B4F90C1070
:10416000FFF7B2FF03F036FC294603F057F903F0DE
:1041700031FC0A22B4F90E10FFF7A6FF03F02AFC67
:10418000294603F04BF903F025FC0A22B4F910107C
:10419000FFF79AFF03F01EFC294603F03FF903F0F6
:1041A00019FC234903F03AF903F014FC0A22B4F98C
:1041B0000610FFF789FF03F00DFC294603F02EF9E6
:1041C00003F008FC0A22B4F90810FFF77DFF03F0A2
:1041D00001FC294603F022F903F0FCFB0A22B4F9A2
:1041E0000A10FFF771FF03F0F5FB294603F016F9FB
:1041F00003F0F0FB0F4903F011F903F0EBFB0A2287
:10420000B4F91210FFF760FF03F0E4FB0A4903F072
:1042100005F903F0DFFBB4F914100A22BDE83840B9
:10422000FFF752BF99A40D00E0A30D00F0A30D000D
:10423000F8A30D00FFA30D000FA40D0038B503F087
:10424000C9FB3649364C03F0E9F803F0C3FB0546D9
:10425000204600F0D9FDDFED337A60EE277A17EEC5
:10426000900A05F08FF9304B002205F02DF841EC53
:10427000100B0221284603F0EAF903F0ABFB2B49AF
:1042800003F0E3F803F0A6FB294903F0C7F803F0B5
:10429000A1FB0546204600F0E5FDDFED267A80EE25
:1042A000277A022128469FED240A27EE000A03F010
:1042B000BFF903F08FFB214903F0C7F803F08AFB35
:1042C0001F4903F0ABF803F085FB9FED1E0A05467E
:1042D000204600F0A1FE0221284603F0A9F903F0D0
:1042E00079FB194903F0B1F803F074FB174903F0A7
:1042F00095F803F06FFB0546204600F02DFF0221E4
:10430000284603F095F903F065FB114903F09DF889
:1043100003F060FBBDE8384003F08BB81DA40D002E
:10432000C0E403206666E63F000040402CA40D0078
:104330002FA40D0080E6C54700003E443BA40D00BD
:1043400041A40D0000507D4455A40D0058A40D005B
:1043500064A40D0030B58BB06946424801F0FAFA0A
:1043600003F038FB404903F070F803F033FB3F499A
:1043700003F054F803F02EFB694603F066F803F0EF
:1043800029FB3B4903F04AF803F024FB039C002C73
:10439000054663DA2D2103F045F861420A222846DA
:1043A00003F05FF8284603F044F803F013FB3149AB
:1043B00003F034F803F00EFB049C002C05464FDAA2
:1043C0002D2103F02FF861420A22284603F049F814
:1043D000284603F02EF803F0FDFA274903F01EF8F3
:1043E00003F0F8FA9DED060A022103F021F903F02B
:1043F000F1FA224903F029F803F0ECFA204903F01E
:104400000DF803F0E7FA9DED070A022103F010F919
:1044100003F0E0FA194903F018F803F0DBFA194940
:1044200002F0FCFF03F0D6FA9DED080A022103F02A
:10443000FFF803F0CFFA114903F007F803F0CAFAC6
:10444000094903F002F803F0C5FA0F4902F0FDFF35
:104450004FF4FA7003F042F90BB030BD21469DE7EE
:104460002146B1E704E5032067A40D008CA40D00EC
:104470009BA40D00AAA40D00B9A40D00C8A40D00B2
:10448000CDA40D00DCA40D0056A50D001FB50E48EF
:1044900000F0E6FB03F04CFD0C4A0D49CDE901218B
:1044A0004FF0FF320346009240218022094802F07B
:1044B000A1FB03F03DFD034607482822372105B044
:1044C0005DF804EB01F06EBAC0E40320801A060028
:1044D000A086010020E5032004E5032038B53D4C0B
:1044E0003D4D204601F030FE204602F0A0FA0023A8
:1044F0003A492361204602F091FF284600F084FCEF
:10450000DFED377A60EE277A17EE900A05F03AF879
:10451000344B002204F0D8FE41EC100B022120465F
:1045200003F095F83049204602F08FFF2F492046CE
:1045300002F074FF284600F095FCDFED2D7A80EE46
:10454000277A022120469FED2B0A27EE000A03F06E
:104550006FF82949204602F078FF2849204602F0EA
:104560005DFF28469FED260A00F056FD02212046F9
:1045700003F05EF82349204602F067FF22492046F7
:1045800002F04CFF284600F0E7FD0221204603F030
:104590004FF81E49204602F058FF03F01BFA02F0C4
:1045A00048FF1B49204602F050FF03F013FA02F0C7
:1045B00040FF1849204602F031FF174B204693ED8B
:1045C000000A022103F034F82046BDE8384002F02A
:1045D0002EBA00BF20E50320C0E40320EBA40D00A9
:1045E0006666E63F00004040F4A40D00F9A40D000B
:1045F00080E6C54700003E443BA40D0049A40D00E1
:1046000000507D4455A40D0058A40D0064A40D0075
:1046100003A50D0014A50D0018E5032000000000FF
:1046200010B52DED028B9CB013A9AF4801F03EFCF4
:10463000FFF704FEFFF752FFAC4B186803F04EF88B
:10464000042003F049FC18B9A949AA4802F0E6FE83
:10465000032003F041FC18B9A749A64802F0DEFE8A
:10466000022003F039FC18B9A449A24802F0D6FE92
:104670000A2003F033F802F08BFB9E489FEDA08ADE
:1046800002F0D5F903F0A6F99E4902F0CEFE03F040
:10469000A1F99DED180A022138EE400A02F0C8FF88
:1046A00003F098F9984902F0C0FE03F093F99DEDEC
:1046B000190A022102F0BCFF03F08CF9924902F0C2
:1046C000B4FE03F087F99DED1A0A022102F0B0FF53
:1046D00003F080F98D4902F0C2FE834801F01AFB15
:1046E0008DED0A0B8DED0C1B8DED0E2B8DED103B22
:1046F00003F070F9864902F098FE03F06BF9044666
:10470000DDE90A0105F08EFA022100EE100A2046CA
:1047100002F08EFF03F05EF97B4902F086FE03F0A3
:1047200059F90446DDE90C0105F07CFA022100EE9E
:10473000100A204602F07CFF03F04CF9724902F0A7
:1047400074FE03F047F90446DDE90E0105F06AFA4C
:10475000022100EE100A204602F06AFF03F03AF947
:10476000694902F062FE03F035F90446DDE9100103
:1047700005F058FA022100EE100A204602F058FF18
:1047800003F028F96149634C02F069FE00238DF8BB
:104790000F300DF10F030DF10D0203A900935248E4
:1047A0000DF10E0301F0B7F903F014F95A4902F0C4
:1047B0003CFE03F00FF90A229DF80C1002F051FEA6
:1047C00003F008F9504902F030FE03F003F90A2221
:1047D0009DF80D1002F045FE03F0FCF84A4902F086
:1047E00024FE03F0F7F80A229DF80E1002F039FEBD
:1047F00003F0F0F8444902F018FE03F0EBF80A2247
:104800009DF80F1002F02DFE03F0E4F83F4902F08E
:1048100026FE03F0DFF8414902F017FE13A93248E3
:1048200001F044FB03F0D6F83D4902F0F7FD03F038
:10483000D1F89DED180A042102F0FAFE03F0CAF83F
:10484000384902F0EBFD03F0C5F89DED190A04218B
:1048500002F0EEFE03F0BEF8334902F0DFFD03F094
:10486000B9F89DED1A0A042102F0E2FE03F0B2F855
:10487000264902F0EAFD03F0ADF8284902F0E5FD13
:10488000189804F07FFE16A3D3E9002304F01CFD62
:1048900005F0C8F907EE900AF4EEC87AF1EE10FAC6
:1048A000C8BF77EEC87AC4ED007A03F093F81F49C9
:1048B00002F0B4FD03F08EF894ED000A042102F03A
:1048C000B7FE04A9084801F077F904A8FFF712FC25
:1048D0004FF47A7002F002FF1CB0BDEC028B10BDE9
:1048E000CDCCCCCCCCCC494004E503201CE5032046
:1048F00024A50D0020E50320E6A70D0026A50D0048
:104900000000B44328A50D0036A50D0056A50D00E6
:1049100039A50D0018E5032046A50D0054A50D008E
:1049200057A50D005BA50D0060A50D0065A50D0048
:104930002DE9F84303F04EF84FF4E13103F038F875
:1049400003F048F803F03BF80028F9D0864C03F058
:1049500041F8864902F083FD03F03CF8844902F0F7
:1049600074FD01223C21204602F058F903F032F890
:10497000804902F06AFD204602F059F84FF47A703F
:1049800002F0ACFE204601F0DFFB204602F04FF8BB
:104990000121204601F0DEFD03F01CF8764902F00B
:1049A00054FD0221042003F06DFA0221032003F0DC
:1049B00069FA0221084603F065FA0121204602F057
:1049C00030F800264FF00113C4E904636B49204618
:1049D00002F024FD6A49204602F020FD6949204684
:1049E00002F033FD6849204602F02FFD204602F018
:1049F0001EF8664800F0B5FD78BB02F0EBFF644995
:104A000002F023FD02F0E6FF624902F007FD02F02A
:104A1000E1FF04465D4800F027F9102201462046D8
:104A200002F01FFD204602F004FD02F0D3FF5A49B8
:104A300002F0F4FC02F0CEFF584902F0EFFC02F065
:104A4000C9FF574902F0EAFC02F0C4FF554902F0E1
:104A5000E5FC0A2002F042FEFBE702F0BBFF4FF448
:104A6000165102F0A5FF02F0B5FF4F4902F0EDFC30
:104A700002F0B0FF4D4902F0E8FC4D480C2100F077
:104A8000F9FF28B902F0A6FF4A4902F0C7FCFEE789
:104A90004FF47A70484D494C494FDFF8408102F09D
:104AA0001DFE02F097FF474902F0CFFC2E60012364
:104AB000454E237003F03CFA217803F0EBF803F045
:104AC00037FA03F0EFF8387078BB02F083FF3F4904
:104AD00002F0A4FC23780F2B04D802F07BFF3146B0
:104AE00002F09CFC02F076FF2178102202F0B9FC63
:104AF00002F070FF364902F0A8FC2B6801332B60EE
:104B000023780133DBB27E2B2370D3D92B6833BBE0
:104B100002F060FF2F4902F098FC2548012100F0C7
:104B200075FFBDE8F843FFF715BC0428E8D102F093
:104B300051FF414602F072FC23780F2B04D802F09B
:104B400049FF314602F06AFC02F044FF21788146B9
:104B5000102202F086FC484602F06BFCD0E702F01F
:104B600039FF1D49D7E700BF20E5032078A50D00D8
:104B700084A50D00A1A50D00ACA50D00B8A50D00E4
:104B8000D7A50D00E2A50D00F0A50D00C0E403209F
:104B9000FFA50D0047A60D0058A60D009FA60D000D
:104BA000C9A60D00F3A60D001DA70D0056A50D000A
:104BB00004E5032033A70D007CE50320BCE40320BB
:104BC00078E5032070A70D00FDA50D007CA70D0062
:104BD0009BA70D00BBA70D00D1A70D009FA70D003F
:104BE000704710B51021044603F0C6F9204610BDE9
:104BF0000EB403B503AB002153F8042B019302F06C
:104C000029FD02B05DF804EB03B0704773B50446AC
:104C100008462279A36832B1A3B90B4902B0BDE8B6
:104C2000704002F0FBBB094A267B094D0949647BB1
:104C3000012E18BF2946CDE900140749FFF7D8FF18
:104C400002B070BD054AEFE7E8A70D0056A50D00BC
:104C5000E4A70D00E0A70D00FEA70D00D7A70D00EB
:104C60004FF0FF33036170478068704713B50B4CFA
:104C70002178BFF35B8F11F001010BD12046019128
:104C8000FFF71AFA019928B1054802F0C9FA20463F
:104C9000FFF717FA024802B010BD00BF80E50320FD
:104CA00084E503202DE9F04190F9133001330546E6
:104CB0000F4606D1FFF7DAFF3946BDE8F04102F0B2
:104CC00051BB002407264FF0010895F9130000217D
:104CD00080B203F0E8F895F9110008FA06F13940BE
:104CE00080B203F0E0F895F91300012180B203F0DF
:104CF000DAF895F91200640080B2E4B203F0ECF83F
:104D000008B144F00104013EDFD22046BDE8F08145
:104D100008B5FFF7ABFFBDE8084002F09CBA07B545
:104D20000190FFF7A3FF019903B05DF804EB02F0D7
:104D3000ABBA000030B590F91030013385B00446AD
:104D40000D4623D10179006802F0A4FF20680368B2
:104D500029469B689847206802F0A4FF21792068C3
:104D6000032202F094FF206803685B6998470502FC
:104D7000206803685B699847284305022068036838
:104D80005B6998470543284605B030BD90F913305C
:104D900001330CD11A4B009300238DF80430194BCA
:104DA000029368460123ADF80C30FFF7B8FF94F981
:104DB0001000002180B203F076F845F08001204613
:104DC000FFF770FF00212046FFF76CFF002105026E
:104DD0002046FFF767FF2843050200212046FFF722
:104DE00061FF054394F91000012180B203F05BF8E4
:104DF00094F913300133C6D1FFF78AFFC3E700BF30
:104E000024A80D0020A1070010B5FA210446FFF7E1
:104E100091FFB0F5000F1ED0A18A9FED107A4B00D4
:104E2000C1EB2022C3EBE011B4F9163052435943D1
:104E3000B4F91830121353439B1303EBE123E360DF
:104E400003EB830380331B1207EE903AF8EEE77A08
:104E500087EE870A10BD9FED020AFBE70000C842FB
:104E60000000C07F2DE9F8430446FFF7CDFFF7218E
:104E70002046FFF75FFFB0F5000F054600F0BF804A
:104E8000E068B4F91C60B0F5FA334FEAE07141F123
:104E9000FF32A3FB038903FB02F109EB4109F7177A
:104EA00006FB02F103FB0711A6FB03670F4439035E
:104EB00041EA16513003B4F91E60F71706FB09FCEE
:104EC00008FB07CCA6FB086767444FEA162C4CEAA0
:104ED000076C668B4FEA272E1CEB00004EEB010E91
:104EE00000304EF5004EA0FB060106FB0E114E10E1
:104EF000CF1756EA070100F08580B4F9240000FBC3
:104F000009FCC11708FB01CCA0FB0801B4F9228001
:104F10004FEAE87908FB02F203FB0922A8FB0389A8
:104F2000914461444FEA48424FEA494C2D1112180E
:104F3000C5F580154CEAD83CB4F920804CEB010C47
:104F40000023E9179B184FEAC17E4FEAC5704FEA6C
:104F5000C80141EB0C0C4EEA550EC01A40F6354321
:104F60006EEB0C0EA0FB030103FB0E1132463B4619
:104F700004F0B6FFB4F92A204D13460B46EAC146A9
:104F800002FB05F7D31706FB0377A2FB06233B447E
:104F9000554306FB0355A2FB06232B44550E45EA59
:104FA000C315B4F92820B4F926402D184FEA6366DA
:104FB00041EB0606D317514300FB0311A2FB00236C
:104FC0000B44D10C41EA43316D184FEAE34046EB04
:104FD00000032A0AE51742EA0362191220012B0195
:104FE00043EA1473801843EB010104F03BFF9FED8B
:104FF000070A07EE900A27EE800ABDE8F8839FEDC6
:10500000040AFAE79FED030AF7E700BF0000803BC0
:105010000000C07F0000000008B52DED028BB0EE4F
:10502000408AFFF71FFF9FED167AC0EE077AC7EEA2
:10503000887A17EE900A04F0A5FA9FED0D1B41EC5B
:10504000100B02F09DFF0F4953EC102B002004F0D1
:1050500039F909A3D3E9002304F0ECFA04F0E2FDE6
:10506000BDEC028B00EE100A08BD00BFAFF300805C
:10507000EBE2361AC05BC83F0000000040A5E540E7
:105080000000C8420000F03F30B590F91030013305
:1050900085B004460D461FD10179006802F0FAFD83
:1050A0002068036829469B689847206802F0FAFD4B
:1050B00021792068022202F0EAFD206803685B691A
:1050C00098470546206803685B69984740EA0520D1
:1050D00085B2284605B030BD90F9133001330CD1AC
:1050E000184B009300238DF80430174B0293684649
:1050F0000123ADF80C30FFF712FE94F910000021E7
:1051000080B202F0D0FE45F080012046FFF7CAFDD4
:1051100000212046FFF7C6FD002105462046FFF787
:10512000C1FD40EA052085B294F91000012180B24A
:1051300002F0B9FE94F913300133CAD1FFF7E8FD4C
:10514000C7E700BF24A80D0020A1070008B5FFF79E
:105150009BFF40BA80B208BD38B50446FFF754FE45
:10516000FD212046FFF790FFB0F5004F38D0B4F98D
:105170003250E268B4F934302D05A2F59632C5EB11
:10518000803002FB130303F58043D91394F83030C9
:105190005343DB1203F5004094F9363053439B121E
:1051A00043439B1203F50012B4F92E30534303F529
:1051B00000539B134B43DA1394F82C105243D21133
:1051C0004A43A3EB221323EAE373B3F1C85FA8BFFA
:1051D0004FF0C8531B1300EE103ABAEECB0A38BD9D
:1051E0009FED010AFBE700BF0000C07F30B590F9DA
:1051F0001030013385B004460D4618D1017900689E
:1052000002F048FD2068036829469B68984720689B
:1052100002F048FD21792068012202F038FD206863
:1052200003685B699847C5B2284605B030BD90F960
:10523000133001330CD1154B009300238DF804304B
:10524000134B029368460123ADF80C30FFF767FD5E
:1052500094F91000002180B202F025FE45F0800193
:105260002046FFF71FFD00212046FFF71BFD0546E6
:1052700094F91000012180B202F015FE94F9133068
:105280000133D1D1FFF744FDCEE700BF24A80D00C4
:1052900020A1070008B5F321FFF7A8FF00F00100E7
:1052A00008BD38B588210446FFF750FF8A21A08247
:1052B0002046FFF74BFF8C21E0822046FFF746FF98
:1052C0008E2120832046FFF741FF902160832046F6
:1052D000FFF73CFF9221A0832046FFF737FF942180
:1052E000E0832046FFF732FF962120842046FFF717
:1052F0002DFF982160842046FFF728FF9A21A08483
:105300002046FFF723FF9C21E0842046FFF71EFF85
:105310009E2120852046FFF719FFA12160852046A8
:10532000FFF764FFE12184F82C002046FFF70EFF11
:10533000E321E0852046FFF759FFE42184F830009F
:105340002046FFF753FFE52105462046FFF74EFFB5
:1053500000F00F0343EA05106086E6212046FFF7C0
:1053600045FFE52105462046FFF740FF031143EACC
:105370000510A086E7212046FFF738FF84F83600A5
:1053800038BD00007FB590F91030013304460E4659
:10539000154612D10179006802F07CFC2068036890
:1053A00031469B6898472068036829469B68984760
:1053B000206802F077FC04B070BD90F9133001331F
:1053C0000CD1144B009300238DF80430124B029340
:1053D00068460123ADF80C30FFF7A1FC94F91000EA
:1053E000002180B202F05FFD06F07F012046FFF74A
:1053F00059FC29462046FFF755FC94F9100001217D
:1054000080B202F050FD94F913300133D3D1FFF78D
:105410007FFCD0E724A80D0020A10700F8B5DB0031
:1054200002F0070203F03803134343EA81139DF8A7
:10543000186080F83C3090F840309DF81C509DF882
:10544000207066F3471380F84030ED0090F8383054
:1054500007F0070705F0380523F03F033D430446F6
:105460001D4380F8385006F00702F221FFF78AFF4B
:1054700094F83820C2F3C20302F007019B0043EA0C
:10548000411343EAD2122046F521FFF77BFF94F83F
:105490003C20C2F3C20302F007019B0043EA411320
:1054A00043EA92122046F421BDE8F840FFF76ABFB4
:1054B00030B5044690F91000421C85B019D120681F
:1054C00002F0B6FBD0212046FFF790FE6028A060D6
:1054D00045D12046B622E021FFF754FF4FF49670E5
:1054E00002F0FCF82046FFF7D5FE054628B36420FD
:1054F000F6E7012180B202F0D6FC94F910000121F8
:1055000080B202F0BFFC94F91300431C04D1FFF7F2
:10551000ADFB01F08FFED5E7012180B202F0B2FCB5
:1055200094F91100012180B202F0ACFC94F9120050
:10553000002180B202F0A6FCC4E72046FFF7B1FECE
:10554000052300931A4603212046CDE90155FFF7B4
:1055500065FF642002F0C2F8012005B030BD0020D4
:10556000FBE7772310B50371044602F0E1FC2060ED
:105570002046FFF79DFF30B9762323712046BDE812
:105580001040FFF795BF10BD10B50446406810B13C
:1055900003689B689847204610BD38B5044690F9CB
:1055A0000E00012180B202F06DFC94F90E00012181
:1055B00080B202F078FC256835B1284601F03AFE49
:1055C000012084F8340038BD94F90F00012180B225
:1055D00002F058FC637B94F90F00012B94BF29461D
:1055E000012180B202F05FFC94F91000421C09D046
:1055F000012180B202F046FC94F91000012180B232
:1056000002F051FC94F91100431CD9D0002180B262
:1056100002F038FCD4E700002DE9F04F04460068A2
:1056200085B00D4640B10023009313460A4601F0B1
:105630009FFE05B0BDE8F08F237BA068484FB7FB05
:10564000F0F7002B0B780CBF4FF0010B4FF0800BE5
:105650001BEA030F01EB02030CBF4FF001094FF0EF
:105660000009FFB20393039BAB42E2D095F800A080
:105670005E464FF0000817B1384601F079FB637BB6
:1056800013F0FD0F41D194F910305A1C0FD01AEAD3
:10569000060114BF012300234B4508D06369606AEB
:1056A0001A6800292CD002431A604FF00109A16941
:1056B000E36A0A6813430B6017B1384601F058FBE0
:1056C00094F91130013306D0E3691A68A36A1A42CB
:1056D00018BF46EA0808A169E36A0A6822EA0303D8
:1056E0000B6094F91130013318BF85F80080237BDB
:1056F000002B32D17600F6B2002EBCD10135B2E7D4
:1057000022EA00021A608946D1E7A169E36A0A68C1
:1057100013430B6017B1384601F02AFB94F910309F
:10572000013308D06369616A1A681AEA060F14BF68
:105730000A438A431A60A169E36A0A6822EA0303FA
:105740000B6094F911300133CBD0E3691A68A36A76
:105750001A4218BF46EA0808C3E77608CCE700BF3C
:1057600020A1070007B501228DF807100DF10701F0
:10577000FFF752FF9DF8070003B05DF804FB2DE929
:10578000F041044600680E4617461D4610B1616898
:1057900001F07AFD94F90E00002180B202F083FB43
:1057A000069B05EB0308454508D13744B7420BD0AB
:1057B00016F8011B2046FFF7D5FFF7E715F8011B88
:1057C0002046FFF7CFFFEEE794F90E00012180B2EB
:1057D00002F069FB206808B101F03DFD0120BDE841
:1057E000F08142600022027220220170C260704784
:1057F00010B5037A044653B12178606802F04AFA82
:10580000606802F04FFAB0FA80F0400910BD012143
:1058100000F003F80028EFD1F8E738B504464068F7
:105820000D4602F005FA0120207225B12046BDE8A0
:105830003840FFF7DDBF38BD2DE9F843DDE90896B4
:105840001F46C368154632449A420446884602D928
:105850000020BDE8F8830178406802F01BFA7EB9A9
:10586000606803682A46DB68414698478542EFD165
:105870006068394602F012FAB0FA80F04009E8E7B1
:10588000B9F1000FECD0606803683246DB68494626
:105890009847B042DCD1E3E72DE9F04115460446D4
:1058A0000E46D2B20178406802F0DFF985420DD190
:1058B00000271FFA87F8A84507F1010709D2606899
:1058C00003685B69984706F80800F2E70020BDE826
:1058D000F0810120FBE72DE9F8430746884616468C
:1058E00099460025B54212D2FA68741B944228BF2B
:1058F0001446331BAB4294BF4B460023224608EBB1
:1059000005013846FFF7C8FF10B12544EAE701203A
:10591000BDE8F88373B51D460023CDE900339DF83B
:105920001C30069E0446FFF787FF40B10123324634
:105930002946204602B0BDE87040FFF7CCBF02B058
:1059400070BD08B5406802F06FF9012008BD7047CE
:10595000704700000B4610B5282204460021184667
:1059600004F086FC09490B2204F0B6FC0022012158
:10597000C272C160E168426200220161826103215A
:10598000C261034A4161026210BD00BF30A80D0030
:105990000AD7233C10B51421044602F0EDFA204644
:1059A00010BD000073B50193094B03600023C0E9EB
:1059B0000231044610201646FEF76DFB054618B16D
:1059C000019A3146FFF70DFF2046A56002B070BD79
:1059D00040A80D001FB50023CDE900338DF80C1051
:1059E0008DF80D200123022203A98068FFF724FF10
:1059F00005B05DF804FB08B50A4601743D21FFF7C8
:105A0000E9FFBDE808401E2001F068BE70B50D46F4
:105A100000210446067CFFF7EEFF192001F05EFE30
:105A2000002207212046FFF7D5FF85B180223F21C4
:105A30002046FFF7CFFF0A2001F050FE20463146F6
:105A4000FFF7D9FFBDE87040142001F047BE2A4699
:105A5000EDE71FB501220023CDE9002303AB8DF84C
:105A60000C1080681946FFF755FF9DF80C0005B033
:105A70005DF804FB70B504460E4680680121FFF70F
:105A8000CCFE054610B90025284670BD00212046F1
:105A9000FFF7DFFFA02813D100212046FFF7ABFF5F
:105AA00020223F212046FFF795FF1E2001F016FE21
:105AB00000212046FFF7CDFFA0280CD00A20F5E7F3
:105AC0004FF47A7001F00AFE00212046FFF7C1FF73
:105AD000A028D8D1E0E7322001F000FE00223E21CC
:105AE0002046FFF777FF0A2001F0F8FD002207218A
:105AF0002046FFF76FFF00223F212046FFF76AFF95
:105B00000A2001F0EBFD20463146FFF774FF142018
:105B100001F0E4FDB8E7F8B50E463521069F1546BD
:105B20001C46FFF796FF0EB18309337015B1C0F321
:105B300001132B7014B1C0F38103237017B100F06F
:105B400003003870F8BD1FB504460DF10F03009334
:105B50000DF10D020DF10E0303A9FFF7DCFF237C0D
:105B6000013B092B17D8DFE803F00522101E0C13A8
:105B7000160C1E109DF80E00C31E5842584104B06A
:105B800010BD9DF80E30032B14D19DF80D00F3E7E6
:105B90009DF80F30F7E79DF80C30032B0AD19DF8E4
:105BA0000D30032B06D19DF80E30032B02D19DF84A
:105BB0000F00E1E70020E2E72DE9F04104460D4641
:105BC000FFF7C1FF0646002800F091800021204623
:105BD00094F81080FFF70FFF192001F07FFD562188
:105BE0002046FFF736FF552107462046FFF731FFD5
:105BF00040EA0720288058212046FFF72AFF572136
:105C000007462046FFF725FF40EA072068805A2113
:105C10002046FFF71EFF592107462046FFF719FFD0
:105C200040EA0720A8805C212046FFF712FF5B2195
:105C300007462046FFF70DFF40EA0720E8805E2177
:105C40002046FFF706FF5D2107462046FFF701FFCC
:105C500040EA0720288160212046FFF7FAFE5F21F5
:105C600007462046FFF7F5FE40EA072068816221DB
:105C70002046FFF7EEFE612107462046FFF7E9FECA
:105C800040EA0720A88164212046FFF7E2FE632155
:105C900007462046FFF7DDFE40EA0720E88166213F
:105CA0002046FFF7D6FE652107462046FFF7D1FEC6
:105CB00040EA0720288268212046FFF7CAFE6721B4
:105CC00007462046FFF7C5FE40EA072068826A21A2
:105CD0002046FFF7BEFE692107462046FFF7B9FEC2
:105CE00040EA0720A88241462046FFF784FE30465E
:105CF000BDE8F0811FB58DF80C100021CDE9003111
:105D0000134603A901228068FFF704FE05B05DF881
:105D100004FB000000B52DED068B002393B008AA0C
:105D2000CDE9083320210823FFF7E4FF9DF8233055
:105D30009DF8220040EA032000B203F011FC00228B
:105D4000214B03F077FC9DF8253041EC1A0B9DF8B0
:105D5000240040EA032000B203F002FC00221A4BA8
:105D600003F068FC9DF8273041EC190B9DF82600E4
:105D700040EA032000B203F0F3FB0022124B03F0D1
:105D800059FC9DF8213041EC180B9DF8200040EAA9
:105D9000032000B203F0E4FB0B4B002203F04AFCAB
:105DA000B0EE4A1AF0EE6A1AB0EE492AF0EE692A0D
:105DB00041EC100BB0EE483AF0EE683A13B0BDEC8F
:105DC000068B5DF804FB00BF0000103FF7B50D46E1
:105DD000164600211822044604F04AFA00230093D4
:105DE000ADF80430284606236A463146FFF782FFA5
:105DF0009DF801309DF800009DF802709DF8045058
:105E000040EA03209DF8033047EA03279DF8053058
:105E10001A2E45EA032500B23FB22DB20DD008D8A4
:105E20000E2E0AD0142E08D0082E21D0204603B002
:105E3000F0BD282E1CD02E2EF7E703F091FB194B56
:105E4000002203F0F7FBC4E90001384603F088FBA9
:105E5000144B002203F0EEFBC4E90201284603F0D4
:105E60007FFB104B002203F0E5FBC4E90401DDE7F2
:105E700003F076FB0C4B002203F006FDC4E90001A1
:105E8000384603F06DFB084B002203F0FDFCC4E92B
:105E90000201284603F064FB034B002203F0F4FCEC
:105EA000E3E700BF0000B03F0000594030B50C46AA
:105EB00087B0054620220021201D04F0D9F92423B3
:105EC0002360EB6863600323A36000F059FF1A228C
:105ED000206129466846FFF779FFDDE9000103F0FC
:105EE000A1FE6061DDE9020103F09CFEA061DDE935
:105EF000040103F097FEE061012007B030BD0029E6
:105F0000F0B566DBB0F90C408C4262DD002A60DB44
:105F1000B0F90E4094425CDD847E022C5AD0032CF2
:105F200061D0012C04D10489D24314440A4621B221
:105F3000B0F938408C42A8BF0C460487B0F93A400B
:105F40009442A8BF14464487B0F93C408C42B8BF85
:105F50000C468487B0F93E409442B8BF1446C487CB
:105F600090F84C40012C16D1012B42D0022B51D07D
:105F70008BB9002A0589476B1446B8BFD41DE410BD
:105F800014FB051402F00706012505FA06F63D5D2F
:105F900025EA06053D5590F84C40042C19D104899A
:105FA00014FB02F202EBD27401EBD17242F34F0206
:105FB00002EB6402446BA05CC9074BBF03F00F0304
:105FC00000F00F0020F00F0040EA031348BF034326
:105FD000A354F0BD0489C94321444489D2432244D7
:105FE00009B212B2A4E74489C9430C44114622B253
:105FF0009EE7002A0589466B1446B8BFD41DE410FD
:1060000014FB051402F007070125BD40375D3D4331
:106010003555C0E7002A0589466B1446B8BFD41D24
:10602000E41014FB051402F007070125BD40375D9D
:106030007D40EDE738B50D46114604461AB209B267
:1060400000F096FA069A0B4BE262079A236000234F
:10605000C4E90933C4E90C234FF0FF33C4E910331A
:106060009DF91430A364049B84F84C5023652046AA
:1060700038BD00BF5CA80D0038B50C4B036004466A
:10608000406B18B101F068F800236363656A35B1AD
:106090002846FFF779FA3821284601F06DFFA06AFB
:1060A00010B1102101F068FF204638BD5CA80D003A
:1060B00030B587B0856A8DF80F1004467DB1002396
:1060C000CAB2CDE900338DF814308DF815200123C4
:1060D000022205A92846FFF7AFFB07B030BD2946CD
:1060E000B0F8400001F0DFFE606A00952B46012207
:1060F0000DF10F01FFF743FBEFE7002914BFA721C4
:10610000A621FFF7D5BFF0B5856A85B004460E46D7
:10611000174665B100230DF10F008DF80F300123F4
:10612000009001932846FFF787FB05B0F0BD294694
:10613000B0F8400001F0B7FE606A00952B463A4681
:106140003146FFF71CFBF0E710B5B0F90A100389E0
:1061500090F84C2012FB03F2CB1D48BF01F10E0357
:10616000DB1004465A43406B002104F081F8002301
:10617000A3632389013BA3876389013BE38710BDA8
:1061800070B5436B04460E4615460BB3002D33D154
:10619000236D002B50D01020FDF77DFF054618B170
:1061A000226D3146FFF71DFBA5621DB30121284674
:1061B000FFF733FBF0B12046FFF7C6FF0023A363D0
:1061C0002389013BA3876389013BE387012012E018
:1061D0002389B4F90A2090F84C0010FB03F0D31D7A
:1061E00048BF02F10E03DB10584300F0ADFF6063BF
:1061F0000028CBD1002070BDA06C0028C8DB012195
:1062000080B201F03FFEB4F84800012101F04BFEDE
:106210000A2001F063FAB4F84800002101F043FEBF
:106220000A2001F05BFAB4F84800012101F03BFEBE
:106230000A2001F053FAABE7606A0028DAD0FFF7D2
:10624000ACF90028D6D0B4F84000012101F01AFEC4
:10625000B1E707B581238DF80510022201A98DF859
:106260000430FFF750FF03B05DF804FB2DE9F04F59
:1062700085B01F46BDF93880BDF83C30A8EB020957
:10628000A7EB010AB9F1000FB8BFC9F10009BAF1D3
:10629000000FB8BFCAF1000AD14583460C46154627
:1062A00004DD3A462C4647460D469046BC4205DD85
:1062B0002A464546904622463C4617463E1BB2B209
:1062C0000092A8EB0502002AB8BF52420192C6F321
:1062D000C03202FA86F64545B4BF01224FF0FF32C4
:1062E00076100292BC421CDCDBF800200393D145FF
:1062F000D2F81880C7BF294622462A46214658466A
:10630000C047019A039BB61AB1B236B2002E05DA25
:10631000029A1544009A56182DB236B2013424B2AE
:10632000E0E705B0BDE8F08F704710B40468246959
:10633000A4465DF8044B604730B40468BDF80850CB
:106340000295A46BA44630BC604730B40468BDF825
:1063500008500295E46BA44630BC604770B4BDF9A8
:106360000C50BDF810600468CDE90356246CA446B7
:1063700070BC60472DE9F3411C460368BDF82080DE
:106380005B6905461646013C34440F4624B29847E3
:106390002B68CDF8048000949C6A28463B46324620
:1063A0003946A0472B68DB6A284602B0BDE8F041B9
:1063B00018472DE9F3411D460368BDF820805B694D
:1063C000044617460E469847CDE9007822686B1EB2
:1063D0003344956A20461BB23A463146A8472368A3
:1063E000DB6A204602B0BDE8F04118472DE9F347CB
:1063F0001E460368BDF928905B69BDF82C800C46E9
:106400000546174698472644B4422B680BDACDF868
:106410000080D3F820A021464B463A462846013456
:10642000D04724B2F0E7DB6A284602B0BDE8F04767
:10643000184713B502680191B0F90E100091146C61
:10644000B0F90C3000221146A04702B010BD2DE972
:10645000F3471D460368BDF82C805B69BDF92890A1
:1064600004460F46164698472368CDF80080D3F8B7
:1064700024A032462B4639462046D0472368CDF823
:10648000008009F1FF323244D3F824A039462B466C
:10649000204612B2D0472368CDF80080D3F820A060
:1064A00032464B4639462046D0476B1ED9192368E1
:1064B000CDF800801D6A20464B46324609B2A847F7
:1064C0002368DB6A204602B0BDE8F04718477047F2
:1064D0002DE9F74399421646BDF92870BDF82C9076
:1064E000026880460D461C4613D1BE42C8BF3346E3
:1064F000CDF82890C4BF3E461F467B1C946B9B1B67
:106500001BB2324629464046A44603B0BDE8F043DC
:106510006047BE420AD19942C2BF0B4625461C467F
:10652000631CCDF82890D46B5B1BE9E7536998474F
:10653000CDE90079D8F8003040469F6A32462346BC
:106540002946B847D8F80030DB6A404603B0BDE8BA
:10655000F043184701F00303B0F90A208376C90716
:10656000B0F9083059BF8381C2818281C3817047ED
:1065700030B54281C281074A074D018100248181E3
:106580004FF0FF31C0E905124460056004610477F3
:10659000046230BD01010001B8AD0D002DE9F04FDE
:1065A00089B0CDE902120268BDF948800493BDF9B3
:1065B0004C3052690593BDF850A00446904718F13D
:1065C00007024FF0000648BF08F10E024FEAE20B47
:1065D00001963546039B019ABDF904109A18059B54
:1065E0008B4212B227DD049B33444FF0000906931F
:1065F0000FFA89F080451FFA89F117DD4F0705BFB3
:10660000069BC0106D001D5C18BFEDB22B060AD5AD
:10661000029B206807921944836909B21F462046ED
:106620005346B847079A09F10109E1E7019B013395
:1066300001935E44CEE72368DB6A204609B0BDE8DB
:10664000F04F18472DE9F04F2DED028B91B0164613
:10665000026ABDF874809DF878509DF87C400391E3
:106660001F46BDF8703004938346002A40F0C58071
:10667000B0F90C308B4240F34C81B0F90E30B3428C
:1066800040F34781062313FB0513002B40F34181A0
:1066900006EBC403002B40F33C81037F1BB9AF2FF3
:1066A00084BF0137FFB2DBF8003058465B6998477A
:1066B0000522099200220592984A07EB8703D31816
:1066C0000C93B3B20693059A0C9B9B5C0793ABB2F9
:1066D0000B93BDF80C300893039B02FB05F919FAE4
:1066E00083F90FFA89F308EE103A08230A93039B03
:1066F00002EB030A4FF000090FFA8AFA079ADBF857
:106700000030D20752D5012D1FFA89F23ED1012C5B
:106710003CD19B6906991F46049B0A4412B251461C
:106720005846B84709F101034FFA83F9079B5B0804
:1067300007930A9B013B13F0FF030A93DED1059FE9
:1067400001377BB20593099B013B13F0FF030993CB
:10675000B9D1049B43450FD0012DDBF800303BD16C
:10676000012C39D10899CDF8008005311C6A3246D8
:10677000082309B25846A047DBF80030DB6A5846C8
:1067800011B0BDEC028BBDE8F04F1847069914FB21
:1067900002F20A44049901910094DB6918EE101A80
:1067A0001F4612B22B465846B847BBE7049A4245EB
:1067B000B8D0012D1FFA89F207D1012C05D19B69B0
:1067C00006991F460A444346A8E70699CDF8048077
:1067D00014FB02F20A44DFE70B9ACDF8048002EBC7
:1067E0008201089AE4000A4411460094DC693246AA
:1067F0002B4609B25846A047BEE7137A5168126883
:106800000D92FF1AFFB201EBC70331F83720069251
:106810009A780992DA780B92012D93F9052093F971
:1068200006A00A9201D8012C57D9BDF92830089347
:106830000FFA8AF30793DBF8003058465B699847F4
:10684000B3B24FF000080E931AFA86F3C1464746DA
:106850000F930B9B9F428FD2079B0E9A3B4403FBE7
:106860000423002205920F9A1BB202EB070A08EEDE
:10687000103A0FFA8AFA4346099A0599914241D291
:106880005A1CD2B25B070C9207D1069B06990D9A4F
:1068900001339BB212F80190069319F0800F12D0C9
:1068A000012DDBF80030BDF80C101AD1012C18D1E5
:1068B0000A9A9B691144059A11441E465246049B4C
:1068C00009B25846B047059E0136F3B24FEA49096E
:1068D00005935FFA89F90C9BCEE70023CDE90733D6
:1068E000A9E70598089A024402FB0511049ACDE92C
:1068F0000042DB6918EE102A1E4609B22B465846A4
:10690000B047E0E7099B013798445FFA88F8FFB287
:106910009FE711B0BDEC028BBDE8F08FB0A80D0071
:10692000F0B5026A85B004460B46002A34D10A2924
:1069300008D1438A0282427E03EBC20363820120B4
:1069400005B0F0BD0D29FAD0E17E007E657E71B103
:10695000B4F91060062111FB0061B4F90C60B1427A
:10696000C1BFB4F91210228201EBC5026282E28A31
:106970000192A28A0092CDE90205B4F91220B4F97D
:1069800010102046FFF75EFE237E228A03EB4303AE
:1069900002EB43032382D2E70A2907D100230382B3
:1069A000137B417E428A01FB0323C7E70D29C6D032
:1069B000157AA942C3D3917A9942C0D351685D1B1D
:1069C000EDB201EBC505AF782FB3E97819B3E17EDD
:1069D000007E667E91B195F905103944B4F91070C6
:1069E00000FB0171B4F90C70B94207DD0027278262
:1069F000B4F91210127B02FB06126282E28A019243
:106A0000A28A0092CDE90206B4F91220B4F910105E
:106A10002046FFF717FE2979237E228A01FB0323F4
:106A2000B8E7012938BF01210176417670472DE989
:106A3000F04F04468BB000F0ABF9B4F90A30B4F96A
:106A40003A50B4F9087094F83890DA1D48BF03F151
:106A50000E0240238DF82330C2F3C7030393A36AC9
:106A6000DB68013B9BB20493B4F93C30FFB2002DCC
:106A7000B8BF073523EAE373B94507F10102C5F34F
:106A8000C70528BFB94652FA83F305FB079A069358
:106A90004FF0000B039B9D426BD2636B267A94F8F8
:106AA000542003EB0A08069B4A449E1BA36A11115B
:106AB000A6EB0906A5F15000F6B2C0B2103102F003
:106AC0000F02002B35D08DF825008DF826101846C2
:106AD000E16A8DF827208DF824B0FEF732FF0123FC
:106AE000CDE900BBA06A042209A9FEF7A5FE9DF826
:106AF00010300593A06AAEB1059BB34228BF334660
:106B00001A46012301930DF123030093414601230B
:106B10000792FEF791FE079AB61A9044F6B200F07B
:106B200037F9E7E7216BFEF70CFF0135EDB2BA4408
:106B3000B0E78DF824008DF82510B4F840008DF8EA
:106B400026201946059301F0AEF9059B0093032218
:106B500009A9606AFEF713FEB4F84000012101F0B4
:106B6000A2F9059B606A009332464146FEF707FE94
:106B7000DBE74FF004224FF0FF33C4E90E230BB0E4
:106B8000BDE8F08F30B585B004460A9D0395099D98
:106B900002959DF92050CDE9003513460A460121A2
:106BA000FFF748FA034B23602046002384F8543053
:106BB00005B030BD10AE0D0010B5034B03600446A8
:106BC000FFF75AFA204610BD10AE0D0010B5034B6A
:106BD00003600446FFF7F0FF204610BD4CB00D00E7
:106BE00010B50446FFF7F2FF2046582101F0C4F922
:106BF000204610BD30B585B004460A9D0295099D1A
:106C000001959DF920500095FFF7BCFF024B2360D2
:106C1000204605B030BD00BF4CB00D0030B5044675
:106C200085B0FFF7ADFA2F212046FFF712FBA268CF
:106C30002F4B9A4221D1236801211B6B2046984794
:106C4000B4F90820B4F90A102023203A7339012539
:106C5000CDE9013502EBD272732301EBD1710093C0
:106C600041F34F01234B204642F34F02FFF796FCBE
:106C7000236800211B6B20469847A368B3F1801F4F
:106C800017D1B4F90820B4F90A1020230120203AC2
:106C90007339CDE9013002EBD272732301EBD1716C
:106CA000009342F34F02134B41F34F012046FFF78D
:106CB00075FC114916222046FFF725FA054618B93A
:106CC0000025284605B030BDA368B3F1801F07D06A
:106CD000642000F003FDAF212046FFF7E9F9F0E75B
:106CE000064904222046FFF70EFA0028F0D1E7E714
:106CF0004000800064AE0D00A4B00D00A0B00D00F7
:106D000008B5024B1B689B68019308BD680203002D
:106D100008B5024B1B68DB68019308BD68020300DD
:106D200008B5024B1B689B68019308BD2C02030049
:106D300008B5024B1B68DB68019308BD2C020300F9
:106D400008B5024B1B681B69019308BD2C020300A8
:106D500008B5024B1B685B69019308BD2C02030058
:106D600008B5024B1B685B68019308BD180203005D
:106D700008B5024B1B68DB68019308BD18020300CD
:106D800008B5024B1B685B69019308BD180203003C
:106D900008B5024B1B68DB68019308BD480203007D
:106DA00008B5024B1B685B6C019308BD48020300E9
:106DB00008B5024B1B685B69019308BD64020300C0
:106DC00008B5024B1B681B68019308BD3C02030019
:106DD00008B5024B1B68DB68019308BD3C02030049
:106DE00008B5024B1B681B69019308BD3C020300F8
:106DF00008B5024B1B685B69019308BD3C020300A8
:106E000008B5024B1B689B69019308BD3C02030057
:106E100008B5024B1B68DB69019308BD3C02030007
:106E200008B5024B1B681B6A019308BD3C020300B6
:106E300008B5024B1B689B6A019308BD3C02030026
:106E400008B5024B1B681B68019308BD28020300AC
:106E500008B5024B1B68DB68019308BD28020300DC
:106E600008B5024B1B689B69019308BD280203000B
:106E700008B5024B1B68DB69019308BD28020300BB
:106E800008B5024B1B681B6A019308BD280203006A
:106E900008B5024B1B685B6A019308BD280203001A
:106EA00008B5024B1B689B6A019308BD28020300CA
:106EB00008B5024B1B68DB6A019308BD280203007A
:106EC00008B5024B1B681B6B019308BD2802030029
:106ED00008B5024B1B685B6B019308BD28020300D9
:106EE00008B5024B1B681B6C019308BD2802030008
:106EF00008B5024B1B681B6D019308BD28020300F7
:106F000008B5024B1B681B68019308BD30020300E3
:106F100008B5024B1B685B69019308BD3002030092
:106F200008B5024B1B68DB69019308BD3002030002
:106F300008B5024B1B681B6A019308BD30020300B1
:106F400008B5024B1B685B6A019308BD3002030061
:106F500008B5024B1B689B6A019308BD3002030011
:106F600008B5024B1B689B6B019308BD3002030000
:106F700008B5024B1B68DB6B019308BD30020300B0
:106F800008B5024B1B681B6C019308BD300203005F
:106F900008B5024B1B685B6C019308BD300203000F
:106FA00008B5024B1B681B68019308BD4C02030027
:106FB00008B5024B1B685B68019308BD4C020300D7
:106FC00008B5024B1B681B69019308BD4C02030006
:106FD00008B5024B1B685B69019308BD4C020300B6
:106FE00008B5024B1B689B69019308BD4C02030066
:106FF00008B5024B1B68DB69019308BD4C02030016
:1070000008B5024B1B681B6A019308BD4C020300C4
:1070100008B5024B1B685B6A019308BD4C02030074
:1070200008B5024B1B685B6B019308BD600203004F
:1070300008B5024B1B685B68019308BD2002030082
:1070400008B5024B1B685B69019308BD2002030071
:1070500008B5034B1B68D3F88830019308BD0000C6
:107060002002030008B5034B1B68D3F8943001934A
:1070700008BD00002002030008B5024B1B685B68D6
:10708000019308BD4002030008B5024B1B689B68D2
:10709000019308BD4002030008B5024B1B68DB6882
:1070A000019308BD4002030008B5024B1B681B6931
:1070B000019308BD4002030008B5024B1B685B69E1
:1070C000019308BD4002030008B5024B1B689B6991
:1070D000019308BD4002030008B5024B1B68DB6941
:1070E000019308BD4002030008B5024B1B681B6AF0
:1070F000019308BD4002030008B5024B1B681B6BDF
:10710000019308BD4002030008B5024B1B685B6B8E
:10711000019308BD4002030008B5024B1B681B6CBD
:10712000019308BD4002030008B5024B1B685B6C6D
:10713000019308BD4002030008B5024B1B68DB6BDE
:10714000019308BD4402030008B5024B1B681B688D
:10715000019308BD1C02030008B5024B1B685B6865
:10716000019308BD1C02030008B5024B1B685B6A53
:10717000019308BD1C02030008B5024B1B68DB6BC2
:10718000019308BD1C02030008B5024B1B685B6C31
:10719000019308BD1C020300002240681146FFF75E
:1071A000A3BF002240681146FFF7AEBF406800222F
:1071B000FFF7A2BF4068002281F00101FFF78CBFFA
:1071C000002340681A461946FFF77EBF0023406837
:1071D0001A461946FFF770BF002240681146FFF7B4
:1071E00063BF002240681146FFF74EBF406800228F
:1071F0000221FFF751BF002340681A46FFF73CBF4A
:10720000024B03225A60024A1A6070478CE5032041
:10721000C4B00D000021FFF7B3BE0021FFF7B8BED8
:1072200010B5044608462170FFF77AFE002363601C
:10723000204610BD10B504460078FFF7EBFF48B9B3
:1072400020784FF6FF71FFF75BFE2078BDE8104015
:10725000FFF7E3BF10BD0078FFF7DFBF400830B590
:107260001860002418688842E5B206D90134082C59
:1072700002D040081860F5E70725024B5B5D1370EC
:1072800030BD00BFF8B00D002DE9F04306468FB0C9
:1072900000780C46FFF7BEFF00281BDB3578142270
:1072A000002109A802F0E4FF0B23002209A92846C7
:1072B000ADF82430FFF744FE9DF82D3013B19DF852
:1072C0002C5055B10027B946B846012523795DB148
:1072D000C3B100200FB0BDE8F083DDF830809DF829
:1072E00034909DF83570F1E7002B35D1A368434504
:1072F00008D18DF820908DF82170BDF82020A38949
:107300009A42E6D00023A1688DF80F300A9804ABAA
:107310000DF10F02FFF7A2FF217985B989B9A368A2
:1073200043450ED38DF820908DF82170BDF82020B4
:10733000A3899A4205D1049B434502D1C9E700299C
:10734000F9D100230193637B00939DF80F20237BE9
:107350003078FFF70DFEBCE7CDE900552B462A46F5
:107360000121F5E708B50078FFF7D2FDC0B208BDEE
:1073700030B587B004460A9D00950078FFF7E8FD18
:107380003DB9207802A9FFF7EBFD9DF81430DB072B
:10739000F7D407B030BD0000054B02221A60054B40
:1073A000054A9A600020186098809871FFF740BEE7
:1073B000A0E5032094E503200000FFFF024800231E
:1073C0000360FFF7EDBC00BFA4E50320F8B5064657
:1073D0000D468F180024BD420CD0336815F8011BF0
:1073E0009B6830469847031E01DB1C44F3E7002CE2
:1073F00008BF1C462046F8BD13B50446084659B1DF
:10740000019102F061FF23680199DB680246204682
:1074100002B0BDE81040184702B010BD08B5FFF734
:10742000EBFF08BD03689B68184708B5FFF7E4FF4A
:1074300008BD38B50D210546FFF7F4FF0A210446C3
:107440002846FFF7EFFF204438BD38B50546FFF763
:10745000D3FF04462846FFF7ECFF204438BDFFF772
:10746000F4BF30B58BB000238DF82430012A98BFCB
:107470000A2209AC0D46B1FBF2F101FB125303F0F5
:10748000FF03092B94BF30333733DBB2AA4204F831
:10749000013DEFD92146FFF7AFFF0BB030BD000033
:1074A0002DE9F74F55EC104B06460F4610EE102A0B
:1074B00010EE100A2B46294602F056FB40B1534904
:1074C0003046FFF799FF8246504603B0BDE8F08F83
:1074D00025F000494E4B4FF0FF322046494602F05E
:1074E00043FB48B94A4B4FF0FF322046494602F071
:1074F0001DFB08B94749E3E7474B4FF06042204680
:10750000294602F027FB08B14449D9E7444B4FF024
:1075100060422046294602F0FFFA0028F4D10022FA
:1075200000232046294602F0F7FAD0B12D2130463B
:10753000FFF778FF05F1004382461D463949DFF821
:10754000EC904FF0000B00204FF000085FFA8BF337
:107550009F4208D942464B4602F096F90BF1010BC7
:10756000F4E78246EAE722462B4601F0ADFE0D46DF
:10757000044602F037FB804601F0E2FF02460B466C
:107580002046294601F09EFE0A2204460D4630465A
:107590004146FFF766FF824427B123493046FFF793
:1075A0002BFF8244DFF884904FF00008013FFFB2C8
:1075B000FF2F89D042464B462046294602F03AF832
:1075C00004460D4602F0E6FAB0F1000B1ADA2D215E
:1075D0003046FFF727FFCBF1000103460A22304671
:1075E0000193FFF73EFF019B18448244584601F087
:1075F000B7FF02460B462046294601F063FE0446CB
:107600000D46D3E759460023E8E700BF00B10D005F
:10761000FFFFEF7F04B10D00FFFFEF4108B10D0048
:10762000FFFFEFC10000E03F7AA70D0000002440FB
:1076300038B5044610EE100ACDB201F0A3FF41ECBC
:10764000100B29462046BDE83840FFF729BFC9B2D4
:10765000FFF726BF2DE9F04186B000AF05460E4684
:10766000381D142114463B60FFF77EFD13280ED809
:10767000391D2846FFF7C0FE04461EB12846FFF715
:10768000D8FE044420461837BD46BDE8F08100F11D
:10769000080323F00703E846ADEB030D2246411C27
:1076A0003B686846FFF760FD69462846FFF7A4FE81
:1076B0000446C546E1E70000014B024A1A607047E4
:1076C000A8E503200CB10D00024B1A68024B1A60AA
:1076D000704700BF4CE40320ACE503200021FFF716
:1076E000AFBC0000014B00229A607047B0E5032058
:1076F000014B1860704700BF54E4032008B50B4BE2
:1077000043B100F067F903681B699847002801DD61
:10771000AFF30080064B43B100F022FA03681B6907
:107720009847002801DDAFF3008008BD000000008D
:107730000000000008B5FFF7E1FFFFF721FB014B58
:10774000186008BD38E703200548064A064908B511
:10775000121A02F07FFD054B054A1A6008BD00BFF2
:1077600000F4032004F4032098B20D0000F4032079
:107770001E1C279A07B5002300931A466FF0770165
:10778000FFF770FC03B05DF804FB000007B5438809
:107790000A2B08D0502B0BD1094B1B684BB103B0FF
:1077A0005DF804EB1847FFF7E5FF03B05DF804FB55
:1077B000002300931A466FF07701FFF753FCF4E7BC
:1077C000C4E5032010B512480021FFF7DDFC114B82
:1077D0001A68114B9A42114B0CBF012200221A70F9
:1077E00001D0FFF7B1FFFFF7BBFA044602F048FDF6
:1077F0000B4B13B12046AFF3008000210848FFF780
:107800009BFCBDE8104007480021FFF721BC00BFEA
:10781000F1760D0000F403201E1C279AC0E503201A
:10782000000000008D770D00704710B51821044648
:1078300000F0A2FB204610BDF0B5037D062B8DB0F5
:107840000E4600F104074FF0000412D000F10805C5
:1078500015F8011D0A223046FFF703FEAF4204442B
:1078600019D0002CF4D02E213046FFF7DBFD044464
:10787000EEE72F236A4639460A208DF80040FFF7CD
:1078800097FA684602F020FD33680246DB686946D5
:1078900030469847044620460DB0F0BD10B5054B64
:1078A0000446112240F8043B002102F0E1FC20468E
:1078B00010BD00BF34B10D000346074A10B543F8B0
:1078C000042B01F1100251F8044B43F8044B914290
:1078D000F9D10A781A7010BD34B10D0010B59DF8B9
:1078E000084044EA032343EA024242EA01610423D6
:1078F0004160037510BD13B5CB7800938B784A783F
:107900000978FFF7EBFF02B010BD41747047704774
:10791000704708B50021007CFFF762FB40EAE07089
:1079200008BD08B50121007CFFF75AFB40EAE07072
:1079300008BD08B5007CFFF74BFB20EAE07008BDEE
:1079400008B5007CFFF73CFB20EAE07008BD13B5EA
:107950000446007C0191FFF73BFB0028019901DC04
:10796000607C20B1207CFFF743FB20EAE07002B08E
:1079700010BD007CFFF744BB10B51421044600F095
:10798000FBFA204610BD000010B54FF47A73044690
:1079900008460021C4E90113044B2360012320742D
:1079A00063741146FFF7FCFA204610BD48B10D0084
:1079B000007C0022FFF7FCBA007CFFF729BBFFF731
:1079C000FBBF10B514220446002102F051FC2046F2
:1079D00010BD000010B50F4C88B003A8FFF7F1FFF1
:1079E0002178BFF35B8F11F001010FD12046019187
:1079F000FCF762FB019948B103AA0748FFF7C4FFEF
:107A00002046FCF75EFB054802F01EFC024808B069
:107A100010BD00BFC8E50320CCE503200F790D00A1
:107A2000002240681146FFF73FBB00224068114624
:107A3000FFF75ABB002240681146FFF765BB40685C
:107A40000022FFF759BB4068002281F00101FFF7D7
:107A500043BB002340681A461946FFF735BB002395
:107A600040681A461946FFF727BB002240681146B6
:107A7000FFF70ABB406800220221FFF70DBB00237D
:107A800040681A46FFF7F8BA084B10B5282422467A
:107A90001846002102F0ECFB054B04804FF0FF324A
:107AA000426004225A60034A1A6010BDE8E50320D0
:107AB000E0E5032078B10D007047417470477047CE
:107AC00008B5007CFFF7B4F920EAE07008BD08B5FE
:107AD000007CFFF785F920EAE07008BD08B5007C5E
:107AE000FFF78EF940EAE07008BD08B5007CFFF7AB
:107AF0007FF940EAE07008BD007CFFF789B937B52F
:107B0000457C04462DB1207C03B0BDE83040FFF732
:107B10005FB9007C0191FFF78BF900280199F2DC35
:107B2000284603B030BD10B51421044600F024FAF5
:107B3000204610BD10B54FF0000C04460846114613
:107B40004FF47A72C4E901C2044A2260012220740F
:107B500062741A46FFF734F9204610BDB4B10D0027
:107B600013B50D4C2178BFF35B8F11F0010110D1DB
:107B700020460191FCF7A0FA019950B1074B084A41
:107B80000848FFF7D7FF2046FCF79BFA064802F0AB
:107B90005BFB044802B010BD10E6032098E603200A
:107BA00014E603201CE70320BF7A0D007047F8B5E8
:107BB000064615460C468F18BC4206D0336814F8AA
:107BC000011B9B6830469847F6E72846F8BD007CC5
:107BD0000022FFF755B9007C0021FFF759B9007C5E
:107BE0000021FFF75DB9007C0021FFF761B9007C3F
:107BF0000021FFF765B910B51421044600F0BCF967
:107C0000204610BD10B54FF47A7304460846002193
:107C1000C4E90113034B236020741146FFF760F998
:107C2000204610BDE4B10D00007C0022FFF708B92A
:107C30000023007C1A461946FFF70AB97FB50022D7
:107C40001423CDE90122ADF804300B788DF808300B
:107C50004B680393CB680493007C0B7A059301A9CE
:107C6000FFF746F907B05DF804FB1FB5003B8DF840
:107C700000104FF06401039118BF0123694601927F
:107C80008DF80830FFF7DAFF05B05DF804FB01233B
:107C9000FFF7EBBF007C0022FFF7E2B8007C002278
:107CA000FFF7E6B80121FFF7F9BF002340681A4645
:107CB000FFF7E2B9406800220221FFF7EDB9002288
:107CC00040681146FFF7E0B9002240681146FFF70F
:107CD000EBB9002340681A461946FFF7EDB90023B7
:107CE00040681A461946FFF7EFB940680021FFF7D0
:107CF00013BA40680021FFF717BA4068002281F0EC
:107D00000101FFF7E9B940680022FFF7F5B9002249
:107D100040681146FFF7F8B9002240681146FFF7A6
:107D2000E3B92DE9F043002495B016460D46074609
:107D3000FFF7B4FD214618220EA8009402F098FA2D
:107D40004023CDE90C3421466B460CAA3046FEF7A1
:107D5000DFFF0446002846D1024601216868FFF78C
:107D6000A3F90221804622466868FFF79DF9009E2C
:107D700081462146002E36D0002934D17368022B6B
:107D800003D00A2B0BD0F669F4E7B8F1000F04D04A
:107D9000716938460431FFF7AEFD4146F3E7B9F1AA
:107DA000000F01D14946EEE77469102201A802F0E4
:107DB0005FFA06238DF8143001AD04F1080318347E
:107DC000186859682A4603C20833A3421546F7D1FA
:107DD00001A906A807ADFFF76FFD0FCD3C1D0FC42D
:107DE0002B682370DEE70098FEF78AFF384615B04F
:107DF000BDE8F083024B034A1A6000225A607047C4
:107E000030E703200CB20D00232813B502D900205F
:107E100002B010BDA0F10B03022B1AD8174C217829
:107E2000BFF35B8F11F001010BD120460191FCF7EC
:107E300043F9019928B11248FFF7F2F92046FCF7FF
:107E400040F90F4B1878FFF773F80028DFD10120B5
:107E5000DEE7012809D800F06BF80021007CFFF76D
:107E600037F880F00100C0B2D2E709380128EED817
:107E7000FFF776FE007CFEF7D3FFF2E780E50320F4
:107E800084E50320232838B504460D460AD8FF2987
:107E900008D0FFF7B9FF28B129462046BDE8384091
:107EA000FEF73EBF38BD38B504460D46FEF740FF2D
:107EB000FF2810D0062804D84D2323FA00F0C3076A
:107EC00009D42046FFF7A0FF28B129462046BDE887
:107ED0003840FEF735BF38BD10B50446FEF728FF21
:107EE000031FDBB2012B08D92046FFF78DFF20B11D
:107EF0002046BDE81040FEF72BBF002010BD7047A4
:107F000038B5002320254380142304460380856070
:107F100005610649284600F031F8044960602846AA
:107F200000F02CF8E060204638BD00BF40B20D00E4
:107F300030B50E4D2978BFF35B8F11F0010487B087
:107F400011D12846FCF7B8F868B101A8FFF7D8FFAF
:107F500001AA21460648FFF755FE2846FCF7B1F86E
:107F6000044802F071F9024807B030BD3CE7032035
:107F700040E70320FF7E0D00FCF791B8FCF78DB8B9
:107F80002DE9F04F2DED028B8DB057EC106B55ECB9
:107F9000114B00F0ADF9AE4BB0EE408AF0EE608AC6
:107FA00093F90090B9F1FF3F37D022462B46204687
:107FB000294601F0D9FD834678BB32463B46304620
:107FC000394601F0D1FD8046002840F093804FF003
:107FD000000A4FF0000B3046394652465B4601F02E
:107FE00091FD18B352465B462046294601F08AFDB2
:107FF0000090002857D0974BCDF828800122CDE97A
:108000000467CDE90645CDE908AB02920393B9F1C7
:10801000000F00F089809FED8A8BB0EE480AF0EEE9
:10802000680A0DB0BDEC028BBDE8F08FB0EE480AD7
:10803000F0EE680A01F004F88046002800F0828023
:108040004FF000084FF0000951EC180B42464B4628
:1080500001F058FD0028E0D047EC106B00F0F0FF75
:108060000028DAD045EC104B00F0EAFF0028D4D00D
:10807000774B784A93F90030039204210022022BB7
:10808000CDE90467CDE90645CDE9088902910A9258
:1080900004D002A800F0E0FF00284AD1FFF76CF8F6
:1080A0002223036045E045EC104B00F0C9FF002897
:1080B000B3D052465B462046294601F02DFD0028EC
:1080C000ABD0634B0099634A93F900300A910121C8
:1080D000CDE90467CDE90645CDE90212002B6FD149
:1080E000CDE908AB02A800F0B7FF00286ED00A9BCC
:1080F0002BB320E0002200232046294601F002FD98
:1081000000288AD09FED4E8B524BCDF828B001222B
:10811000B9F1020FCDE90467CDE906458DED088B75
:10812000029203933FF479AF02A800F095FF002874
:1081300051D00A9B1BB1FFF71FF80A9B03609DED0E
:10814000088B6AE747EC106B00F07AFF00283FF4D9
:1081500077AF45EC104B00F073FF00283FF470AF91
:1081600053EC182B18EE100A194601F0FDFC384BA1
:10817000002840F0968093F900800A900323029330
:10818000344B0393CDE90467CDE90645B8F1000F00
:1081900026D1DFF8D0904FF0604852465B4630461B
:1081A0003946CDE9088901F0B7FC48BB02A800F0C8
:1081B00053FF00289BD1FEF7DFFF2223036096E7E1
:1081C00025490020022BCDE908018BD1FEF7D4FF11
:1081D000212303608BE7FEF7CFFF21230360A8E78D
:1081E0009FED197B52465B46304639468DED087B44
:1081F00001F092FC002837D1B8F1020FDBD0D5E7AF
:10820000164B00222046294601F014FA02460B467E
:1082100043EC102BCDE9002300F02AFFDDE9002319
:1082200051EC100B01F06EFC002836D10C4B0849C4
:108230004FF06042CDE9082391F90080DCE700BFF0
:10824000000000000000F03F000000000000F07F90
:1082500050E4032044B20D000000F0FF0000E03FB6
:10826000FFFFEFC7FFFFEF471C4B002220462946C8
:1082700001F0E0F902460B4643EC102BCDE9002358
:1082800000F0F6FEDDE9002351EC100B01F03AFCA2
:1082900018B9134B0022CDE90823124B93F9008043
:1082A000AAE793F90090104BCDF828800122CDE980
:1082B0000467CDE90645CDE90223B9F1000F3FF48B
:1082C0000FAF52465B465046594601F0DDFAB9F110
:1082D000020FCDE908013FF479AF03E70000E03F6A
:1082E0000000F0FF50E4032044B20D000000000045
:1082F0002DE9F04F57EC116B2DED0A8B27F0004A5A
:108300005AEA060289B03DD055EC104B764925F06B
:108310000048884510EE102AA9462CDC11EE103AD0
:10832000BB463AD08A4526DC6F498A4521D0B9F14F
:10833000000F3DDB00210391002B55D16A4B9A457C
:1083400000F0A880694B9A4500F0B680BBF1804FE1
:1083500000F00185664B9B4546D1B9F1000F43DB28
:1083600045EC104B09B0BDEC0A8BBDE8F04F00F0B6
:1083700099BD002BDBD008F1404808F5801858EA79
:1083800002030DD19FED547B8DED007B9DED000B25
:1083900009B0BDEC0A8BBDE8F08F0CB9C245C3DD56
:1083A000544809B0BDEC0A8BBDE8F04F00F058BE50
:1083B00051498A4500F38780A1F154718A450FDD48
:1083C0004FEA2A51A1F2FF31142940F3CE84C1F1C2
:1083D000340123FA01F000FA01F1994200F02085FE
:1083E00000210391002BADD045EC104B069200F01C
:1083F0001DFE069A8DED000B5ABBB8F1000F04D09C
:108400003A4B29F040429A4223D1BBF1000F07DAE0
:10841000DDE900233549002001F036FACDE90001FD
:10842000B9F1000FB2DA039B08F1404808F5801853
:1084300058EA030340F0BE84DDE9002310461946E4
:1084400000F040FF02460B4601F01EFACDE90001A4
:108450009CE7039A4FEAD973013B0693134335D047
:10846000264B9A454EDD03F104739A45244B40F3A5
:10847000ED83984540F36B83BBF1000F40F36B83B2
:1084800017A3D3E900231046194601F0D3F8CDE92C
:1084900000017BE708F1404303F5801313433FF4E9
:1084A00071AF174B984540F38883BBF1000FC0F2C2
:1084B0005283CDE9006769E7BBF1000FC0F2418448
:1084C000CDE9004562E70221039135E722462B46BC
:1084D000B4E700BFAFF30080000000000000F03FF1
:1084E0009C7500883CE4377E0000F07F0000F03F80
:1084F0000000E03F48B20D00FFFF3F430000E041B5
:10850000FFFFEF3FE44B09EA0303002B40F0168422
:10851000DDE90001E14B002201F08CF8CDE900011A
:10852000DDF804806FF034004FEA2853DC49C8F3CB
:108530001302A3F2FF3342F07F5818188A420790C3
:1085400048F4401840F3E983D64B9A4240F33E8406
:108550009FEDBB7BB0EE47BAF0EE67BAB0EE47CA0C
:10856000F0EE67CA9FEDB87B013054EC173B0790E3
:10857000A8F580184FF00009DDE900AB44EC183B8A
:108580001A4650462346414600F09CFE53EC182BF9
:1085900004460D465046414600F096FE02460B4604
:1085A0000020C14901F070F945EC1A4B41EC190B60
:1085B00051EC1A0B53EC192B01F03CF8C3464FEA6F
:1085C000680848F0005808F5002303EB09050A463F
:1085D00000230146CDE900120093DDE90089002463
:1085E000CDE904122B4622464046494601F022F8C6
:1085F00002460B4651EC1A0B00F064FE41EC170BDF
:1086000053EC182B2046294655EC174B00F05AFE28
:1086100002460B465046594600F054FE42464B4631
:1086200001F008F802460B462046294600F04AFEB3
:1086300053EC192B00F0FEFFDDE904AB04460D46B8
:1086400052465B465046594600F0F4FF80A3D3E9FA
:10865000002345EC1A4B04460D4600F0EBFF7EA3C9
:10866000D3E9002300F030FE22462B4600F0E2FF63
:108670007BA3D3E9002300F027FE22462B4600F01F
:10868000D9FF79A3D3E9002300F01EFE22462B4632
:1086900000F0D0FF76A3D3E9002300F015FE2246B8
:1086A0002B4600F0C7FF74A3D3E9002300F00CFEB3
:1086B00022462B4604460D461046194600F0BAFFE6
:1086C00002460B462046294600F0B4FF42460446C7
:1086D0000D464B4650465946CDE904AB00F0F4FD3B
:1086E00053EC1A2B00F0A6FF22462B4600F0ECFDBF
:1086F000424604460D464B464046494600F09AFF26
:1087000045EC194B694B002282468B4600F0DCFD9C
:1087100053EC192B00F0D8FD009C0D4622462B4649
:108720004046494600F086FF604B8046894600225D
:108730002046294600F0C6FD52465B4600F0C2FDC9
:1087400002460B4651EC190B00F0BCFDDDE9042399
:1087500000F070FF49EC188B2246804689462B4674
:1087600051EC1A0B00F066FF02460B4640464946A4
:1087700000F0AAFD82468B4652465B4651EC180B30
:1087800000F0A2FD009C3EA3D3E9002320460D4645
:1087900000F050FF53EC182B8046894620462946AE
:1087A00000F090FD02460B465046594600F08AFD07
:1087B00035A3D3E9002300F03DFF49EC198B34A326
:1087C000D3E90023804689462046294600F032FF3F
:1087D00002460B464046494600F076FD53EC1C2B02
:1087E00000F072FD824607988B4600F0B9FE5246B3
:1087F000804689465B4651EC190B00F065FD53EC51
:108800001B2B00F061FD42464B4600F05DFD009CD5
:1088100042464B4620460D4600F054FD53EC1B2BC0
:1088200000F050FD53EC192B00F04CFD02460B46B6
:108830005046594600F046FD82468B4638E000BF60
:108840000000000000000000000000000000F03FF9
:10885000EF4E454A287ECA3F65DBC9934A86CD3F25
:1088600001411DA96074D13F4D268F515555D53F0B
:10887000FFAB6FDBB66DDB3F033333333333E33FA3
:10888000000000E009C7EE3FFD033ADC09C7EE3FF8
:10889000F5015B14E02F3EBE0000F07F0000404376
:1088A0008E98030079B60B000000F03F00000840EE
:1088B000039B069A013B134340F078819FEDC47BF4
:1088C000B0EE479AF0EE679A0023CDE90067009377
:1088D000DDE900893046424639464B4600F0F2FC5D
:1088E00022462B4600F0A6FE32463B4606460F4681
:1088F0005046594600F09EFE02460B463046394629
:1089000000F0E2FC424682468B464B462046294612
:1089100000F090FE06460F463B465046594632460A
:1089200000F0D2FCC44B994204460D46884640F301
:10893000178101F13F4303F5E003034340F02A822E
:10894000A5A3D3E900235046594600F0BDFC3246AA
:1089500041EC180B3B462046294600F0B3FC02468A
:108960000B4651EC180B01F0F5F8002840F012828C
:10897000C8F30A534FF48012A3F2FE3342FA03F312
:108980004344AE49C3F30A52A2F2FF3241FA02FC59
:10899000C3F3130523EA0C01C2F1140445F4801556
:1089A000B8F1000F0B4645FA04F103914FF00000B7
:1089B000B8BF49420246B8BF03913046394600F07D
:1089C00081FC06460F463B4650465946324600F06B
:1089D0007BFC039B1B0500930D46002480A3D3E979
:1089E00000232046294600F025FE3246804689466F
:1089F0003B462046294600F065FC02460B465046A1
:108A0000594600F05FFC78A3D3E9002300F012FE82
:108A100077A3D3E9002306460F462046294600F0F7
:108A200009FE02460B463046394600F04DFC06462C
:108A30000F4632463B464046494600F045FC42461A
:108A40004B4604460D4600F03DFC02460B463046C0
:108A5000394600F037FC224682468B462B4620469C
:108A6000294600F0E7FD64A3D3E9002306460F463C
:108A700000F0E0FD62A3D3E9002300F023FC3246BE
:108A80003B4600F0D7FD60A3D3E9002300F01CFCB7
:108A900032463B4600F0CEFD5DA3D3E9002300F053
:108AA00011FC32463B4600F0C5FD5BA3D3E9002331
:108AB00000F00AFC32463B4600F0BCFD02460B4685
:108AC0002046294600F0FEFB06460F4632463B464E
:108AD0002046294600F0AEFD0022804689464FF030
:108AE00080433046394600F0EDFB02460B464046D7
:108AF000494600F0C9FE524606460F465B462046F0
:108B0000294600F097FD52465B4600F0DDFB024629
:108B10000B463046394600F0D5FB22462B4600F086
:108B2000D1FB02460B460020454900F0CBFB0B462B
:108B300000991944B1F5801F0246C0F269811046C0
:108B400053EC192B00F076FDCDE900011EE4BBF1DA
:108B5000000FFFF695AC9FED327B8DED007B15E4A9
:108B6000DFF8E4C021F00043634540F30B81354B4F
:108B70000B4403430AD132463B4600F0A3FB524666
:108B80005B4600F0DDFF00283FF4F2AE26A3D3E9F8
:108B9000002351EC190B00F04DFD23A3D3E9002372
:108BA00000F048FDCDE90001FFF7F0BB9FED207B11
:108BB000B0EE479AF0EE679A86E6BBF1000FCADA8C
:108BC00007F1004300960193FFF7E0BBAFF300808D
:108BD000000000000000F0BFFE822B654715973CA7
:108BE00000000000432EE63FEF39FAFE422EE63F3A
:108BF000396CA80C615C20BED0A4BE726937663E99
:108C0000F16BD2C541BDBB3E2CDE25AF6A56113F8C
:108C100093BDBE166CC1663F3E5555555555C53F73
:108C2000000000000000000059F3F8C21F6EA5010B
:108C3000000000000000F03FFFFF8F40FFFF0F002B
:108C40000000F03F00346F3FFFCB90409845FFF6A7
:108C50007EAF914B98453FF70FAC8F4B0022DDE97B
:108C6000000100F02FFB78A3D3E9002304460D4652
:108C700000F0E0FC76A3D3E9002382468B46204631
:108C8000294600F0D7FC854B8046894600222046C5
:108C9000294600F0CFFC02460B466FA1D1E9000146
:108CA00000F010FB22462B4600F0C4FC02460B46A7
:108CB00000207B4900F006FB22462B4604460D4669
:108CC0001046194600F0B6FC02460B4620462946DF
:108CD00000F0B0FC62A3D3E9002300F0ABFC024635
:108CE0000B464046494600F0EDFA8046894650461C
:108CF000594642464B4600F0E7FA002452465B468E
:108D000020460D4600F0DEFA02460B464046494634
:108D100000F0D8FA82468B46CAE59FED537BB0EE51
:108D200047BAF0EE67BAB0EE47CAF0EE67CA9FEDF9
:108D3000507B4FF0000954EC173B1DE40020FFF777
:108D4000F3BB554922462B46002000F09DFDCDE99E
:108D50000001FFF71BBB22462B462046294600F0A8
:108D600069FCCDE90001FFF711BB002B42D1C1F135
:108D700014014AFA01F000FA01F151455AD0039367
:108D8000FFF7E0BA464A93425BDCDDE9001200914E
:108D9000039122E638A3D3E9002351EC190B00F02C
:108DA00049FC35A3D3E9002300F044FCCDE90001E0
:108DB000FFF7ECBA039B012B7FF4E8AADDE9002161
:108DC00001F10043CDE90023FFF7E0BA9FED2C7BD2
:108DD000B0EE47BAF0EE67BA9FED2B7BB0EE47CA14
:108DE000F0EE67CA9FED2A7B4FF4802954EC173BC5
:108DF000FFF7C2BB45EC104B039200F017F9039A42
:108E00008DED000B002A7FF461AB0392FFF7F5BAFA
:108E1000039843EC102B00F0BFF951EC100B8FE6D8
:108E200000F00100C0F102010391002B3FF48AAA77
:108E3000FFF7DABA00F00100C0F102030393FFF775
:108E400081BA1B1596E500BF000000604715F73F8B
:108E500044DF5DF80BAE543E555555555555D53F3D
:108E6000FE822B654715F73F000000000000000060
:108E7000000000000000F03F9C7500883CE4377E55
:108E80000000004003B8E23F06D0CF43EBFD4C3E6C
:108E9000000000000000F83F0000F03F0000D03F5D
:108EA0000000E03F2DE9F0415F4A57EC106BBA43F8
:108EB00000F09880002F10EE104A3B464EDD391529
:108EC0005BD0C3F31303CA0743F48013A1F2FF3E40
:108ED00003D45B0003EBD4736400E20F4FF0000C8B
:108EE00002EB43034FEA6E0E6400664616254FF40C
:108EF0000012B118994202DC5B1A8E1894445B0090
:108F0000013D03EBD4734FEA52024FEA4404F0D11F
:108F10002F4620204FF0004209E03ED0E10F0138FB
:108F20004FEA520201EB43034FEA44043ED0B342FE
:108F300002EB0501F1DD002901EB020509DBB0467A
:108F40009B1BA14288BF03F1FF33641A17444646B6
:108F5000E4E7002DF3DB06F10108F1E727F000421A
:108F6000324336D0002F4DD13946E20A1539640517
:108F70001346002AF9D0D70251D400205B00DE024C
:108F8000054600F10100F9D51A4623468440C0F198
:108F90002000C3401343491B93E7A142BED80029D8
:108FA00001EB0205D5DB98460023CEE7234312D11F
:108FB00078084FEA6C0101F17F511CF0010F01F5B7
:108FC000001118BF40F0004001EB0E53024643EC85
:108FD000102BBDE8F0817B1C16BF781C0CF1010C36
:108FE0004008E6E710EE102A10EE100A3B4639461C
:108FF00000F020FB32463B4600F066F941EC100BD6
:10900000BDE8F08110EE102A3046394600F05AF9DA
:1090100002460B4600F038FC41EC100BD9E7234622
:1090200020204FF0FF35B4E70000F07F51EC100B2B
:1090300010EE102A21F0004343EC102B704700BFC4
:1090400082B08DED000B019840F0004000F58010DB
:10905000C00F02B0704700BF002070470000000042
:109060009FED010B704700BF000000000000F87F7B
:10907000F0B553EC102BC3F30A56A6F2FF301328B9
:1090800010EE105A83B019464FEAD37431DC002831
:109090004CDB3E4E064103EA060717432ED003EA97
:1090A00056031D434FEA56060CD04FF48023132875
:1090B00021EA060643FA00F141EA06010CBF4FF02F
:1090C00000450025324800EBC4042A46D4E9004597
:1090D0000B462046294600F0F7F8CDE90001DDE90E
:1090E000000122462B4600F0EDF841EC100B03B0D6
:1090F000F0BD332806DDB0F5806F40D043EC102B77
:1091000003B0F0BDA6F213464FF0FF30F04002422C
:10911000F4D015EA50024FEA5003D3D04FF080420A
:1091200025EA030542FA06F63543CBE723F0004073
:109130001043E3D0C3F313001043454205431448E2
:1091400000EBC400D0E90067590C2D0B490405F46D
:10915000002545EA01033046394600F0B5F8CDE96F
:1091600000013B46DDE90001324600F0ABF821F09A
:10917000004343EAC47141EC100B03B0F0BD10EEA4
:10918000100A00F0A1F841EC100BB9E7FFFF0F0047
:1091900050B20D000000000038B553EC102BC3F3A3
:1091A0000A511C46054681BB10EE101A23F00044FC
:1091B000214329D0194600223D4B3E4C10EE100AA7
:1091C00000F038FAA54202460B4616DB0C46C1F306
:1091D0000A513639294440F2FE70814221DC0029CF
:1091E00047DC11F1350F34DA4CF250318D4218DC86
:1091F000002B27A1D1E9000144DB25A3D3E90023FB
:1092000000F018FA41EC100B38BD40F2FF708142BB
:10921000E0D110EE100A194600F056F841EC100BA0
:1092200038BD002B1CA1D1E9000107DB1AA3D3E94B
:10923000002300F0FFF941EC100B38BD18A1D1E973
:10924000000115A3D3E9002300F0F4F941EC100B61
:10925000F3E724F0FF4424F4E004363144EA0153F8
:10926000104619460022144B00F0E4F941EC100BB3
:1092700038BD24F0FF4424F4E00444EA015343ECF5
:10928000102B38BD08A1D1E90001B6E7AFF300808B
:1092900059F3F8C21F6EA5019C7500883CE4377E27
:1092A0009C7500883CE437FE59F3F8C21F6EA58117
:1092B00000005043B03CFFFF0000903C81F00041B3
:1092C00002E000BF83F0004330B54FEA41044FEAAB
:1092D000430594EA050F08BF90EA020F1FBF54EA46
:1092E000000C55EA020C7FEA645C7FEA655C00F0E2
:1092F000E2804FEA5454D4EB5555B8BF6D420CDDB3
:109300002C4480EA020281EA030382EA000083EA35
:10931000010180EA020281EA0303362D88BF30BDD5
:1093200011F0004F4FEA01314FF4801C4CEA11312B
:1093300002D0404261EB410113F0004F4FEA03338A
:109340004CEA133302D0524263EB430394EA050F15
:1093500000F0A780A4F10104D5F1200E0DDB02FA84
:109360000EFC22FA05F2801841F1000103FA0EF218
:10937000801843FA05F359410EE0A5F120050EF1DE
:10938000200E012A03FA0EFC28BF4CF0020C43FA0F
:1093900005F3C01851EBE37101F0004507D54FF01C
:1093A000000EDCF1000C7EEB00006EEB0101B1F56C
:1093B000801F1BD3B1F5001F0CD349085FEA3000B2
:1093C0004FEA3C0C04F101044FEA445212F5800FBD
:1093D00080F09A80BCF1004F08BF5FEA500C50F15A
:1093E000000041EB045141EA050130BD5FEA4C0C3D
:1093F000404141EB0101013C28BFB1F5801FE9D29A
:1094000091F0000F04BF01460020B1FA81F308BFBC
:109410002033A3F10B03B3F120020CDA0C3208DD88
:1094200002F1140CC2F10C0201FA0CF021FA02F163
:109430000CE002F11402D8BFC2F1200C01FA02F1D3
:1094400020FA0CFCDCBF41EA0C019040E41AA2BFF8
:1094500001EB0451294330BD6FEA04041F3C1CDAC0
:109460000C340EDC04F11404C4F1200220FA04F0E0
:1094700001FA02F340EA030021FA04F345EA03018A
:1094800030BDC4F10C04C4F1200220FA02F001FA4C
:1094900004F340EA0300294630BD21FA04F02946CE
:1094A00030BD94F0000F83F4801306BF81F4801167
:1094B0000134013D4EE77FEA645C18BF7FEA655CDA
:1094C00029D094EA050F08BF90EA020F05D054EAAC
:1094D000000C04BF1946104630BD91EA030F1EBFB1
:1094E0000021002030BD5FEA545C05D140004941B5
:1094F00028BF41F0004130BD14F580043CBF01F5A8
:10950000801130BD01F0004545F0FE4141F470018D
:109510004FF0000030BD7FEA645C1ABF1946104668
:109520007FEA655C1CBF0B46024650EA013406BF69
:1095300052EA033591EA030F41F4002130BD00BF28
:1095400090F0000F04BF0021704730B54FF48064E5
:1095500004F132044FF000054FF0000150E700BF66
:1095600090F0000F04BF0021704730B54FF48064C5
:1095700004F1320410F0004548BF40424FF00001B2
:109580003EE700BF42004FEAE2014FEA31014FEAF5
:1095900002701FBF12F07F4393F07F4F81F0605144
:1095A000704732F07F4208BF704793F07F4F04BF8F
:1095B00041F40021704730B54FF4607401F000456C
:1095C00021F000411CE700BF50EA010208BF7047CC
:1095D00030B54FF000050AE050EA010208BF7047BD
:1095E00030B511F0004502D5404261EB41014FF426
:1095F000806404F132045FEA915C3FF4D8AE4FF02E
:1096000003025FEADC0C18BF03325FEADC0C18BF10
:10961000033202EBDC02C2F1200300FA03FC20FA61
:1096200002F001FA03FE40EA0E0021FA02F11444AE
:10963000BDE600BF70B54FF0FF0C4CF4E06C1CEAC7
:1096400011541DBF1CEA135594EA0C0F95EA0C0F38
:1096500000F0DEF82C4481EA030621EA4C5123EAAB
:109660004C5350EA013518BF52EA033541F48011DA
:1096700043F4801338D0A0FB02CE4FF00005E1FB8D
:1096800002E506F00042E0FB03E54FF00006E1FBD7
:1096900003569CF0000F18BF4EF0010EA4F1FF041A
:1096A000B6F5007F64F5407404D25FEA4E0E6D415A
:1096B00046EB060642EAC62141EA55514FEAC5206B
:1096C00040EA5E504FEACE2EB4F1FD0C88BFBCF5E7
:1096D000E06F1ED8BEF1004F08BF5FEA500E50F198
:1096E000000041EB045170BD06F0004646EA01015E
:1096F00040EA020081EA0301B4EB5C04C2BFD4EB90
:109700000C0541EA045170BD41F480114FF0000E88
:10971000013C00F3AB8014F1360FDEBF002001F0F6
:10972000004170BDC4F10004203C35DA0C341BDC70
:1097300004F11404C4F1200500FA05F320FA04F042
:1097400001FA05F240EA020001F0004221F0004176
:1097500010EBD37021FA04F642EB06015EEA430EE9
:1097600008BF20EAD37070BDC4F10C04C4F1200519
:1097700000FA04F320FA05F001FA04F240EA0200CC
:1097800001F0004110EBD37041F100015EEA430E9D
:1097900008BF20EAD37070BDC4F1200500FA05F2BD
:1097A0004EEA020E20FA04F301FA05F243EA02033C
:1097B00021FA04F001F0004121FA04F220EA02004B
:1097C00000EBD3705EEA430E08BF20EAD37070BD91
:1097D00094F0000F0FD101F00046400041EB010171
:1097E00011F4801F08BF013CF7D041EA060195F053
:1097F000000F18BF704703F00046520043EB03030D
:1098000013F4801F08BF013DF7D043EA06037047F9
:1098100094EA0C0F0CEA135518BF95EA0C0F0CD004
:1098200050EA410618BF52EA4306D1D181EA03014A
:1098300001F000414FF0000070BD50EA410606BF44
:109840001046194652EA430619D094EA0C0F02D189
:1098500050EA013613D195EA0C0F05D152EA0336CE
:109860001CBF104619460AD181EA030101F00041EC
:1098700041F0FE4141F470014FF0000070BD41F035
:10988000FE4141F4780170BD70B54FF0FF0C4CF40F
:10989000E06C1CEA11541DBF1CEA135594EA0C0F2E
:1098A00095EA0C0F00F0A7F8A4EB050481EA030E7B
:1098B00052EA03354FEA013100F088804FEA033362
:1098C0004FF0805545EA131343EA12634FEA022230
:1098D00045EA111545EA10654FEA00260EF00041F1
:1098E0009D4208BF964244F1FD0404F5407402D243
:1098F0005B084FEA3202B61A65EB03055B084FEAD4
:1099000032024FF480104FF4002CB6EB020E75EBD0
:10991000030E22BFB61A754640EA0C005B084FEAF8
:109920003202B6EB020E75EB030E22BFB61A754675
:1099300040EA5C005B084FEA3202B6EB020E75EBC0
:10994000030E22BFB61A754640EA9C005B084FEA38
:109950003202B6EB020E75EB030E22BFB61A754645
:1099600040EADC0055EA060E18D04FEA051545EA34
:1099700016754FEA06164FEAC30343EA52734FEADD
:10998000C2025FEA1C1CC0D111F4801F0BD141EA56
:1099900000014FF000004FF0004CB6E711F4801FBB
:1099A00004BF01430020B4F1FD0C88BFBCF5E06F9B
:1099B0003FF6AFAEB5EB030C04BFB6EB020C5FEAAB
:1099C000500C50F1000041EB045170BD0EF0004E00
:1099D0004EEA113114EB5C04C2BFD4EB0C0541EA32
:1099E000045170BD41F480114FF0000E013C90E62F
:1099F00045EA060E8DE60CEA135594EA0C0F08BFF3
:109A000095EA0C0F3FF43BAF94EA0C0F0AD150EAF1
:109A100001347FF434AF95EA0C0F7FF425AF104684
:109A200019462CE795EA0C0F06D152EA03353FF4AC
:109A3000FDAE1046194622E750EA410618BF52EA29
:109A400043067FF4C5AE50EA41047FF40DAF52EAFD
:109A500043057FF4EBAE12E74FF0FF3C06E000BF9A
:109A60004FF0010C02E000BF4FF0010C4DF804CDA7
:109A70004FEA410C7FEA6C5C4FEA430C18BF7FEA67
:109A80006C5C1BD001B050EA410C0CBF52EA430C95
:109A900091EA030F02BF90EA020F0020704710F115
:109AA000000F91EA030F58BF994208BF90422CBFA4
:109AB000D8176FEAE37040F0010070474FEA410C9D
:109AC0007FEA6C5C02D150EA013C07D14FEA430CBB
:109AD0007FEA6C5CD6D152EA033CD3D05DF8040B2C
